8=FIX.4.2|9=73|35=A|34=1|49=FIXCLIENT|52=20231228-00:00:00.000|56=FIXSERVER|98=0|108=30|10=070|8=FIX.4.2|9=73|35=A|34=2|49=FIXCLIENT|52=20231228-00:00:06.000|56=FIXSERVER|98=0|108=30|10=077|8=FIX.4.2|9=96|35=6|34=3|49=FIXCLIENT|52=20231228-00:00:06.000|56=FIXSERVER|23=na|27=S|28=N|50=1234|54=1|55=NA|10=013|8=FIX.4.2|9=61|35=0|34=4|49=FIXCLIENT|52=20231228-00:00:36.000|56=FIXSERVER|10=037|8=FIX.4.2|9=61|35=0|34=5|49=FIXCLIENT|52=20231228-00:01:06.000|56=FIXSERVER|10=036|8=FIX.4.2|9=61|35=0|34=6|49=FIXCLIENT|52=20231228-00:01:36.000|56=FIXSERVER|10=040|8=FIX.4.2|9=61|35=0|34=7|49=FIXCLIENT|52=20231228-00:02:06.000|56=FIXSERVER|10=039|8=FIX.4.2|9=61|35=0|34=8|49=FIXCLIENT|52=20231228-00:02:36.000|56=FIXSERVER|10=043|8=FIX.4.2|9=61|35=0|34=9|49=FIXCLIENT|52=20231228-00:03:06.000|56=FIXSERVER|10=042|8=FIX.4.2|9=62|35=0|34=10|49=FIXCLIENT|52=20231228-00:03:36.000|56=FIXSERVER|10=086|8=FIX.4.2|9=62|35=0|34=11|49=FIXCLIENT|52=20231228-00:04:06.000|56=FIXSERVER|10=085|8=FIX.4.2|9=62|35=0|34=12|49=FIXCLIENT|52=20231228-00:04:36.000|56=FIXSERVER|10=089|8=FIX.4.2|9=62|35=0|34=13|49=FIXCLIENT|52=20231228-00:05:06.000|56=FIXSERVER|10=088|8=FIX.4.2|9=62|35=0|34=14|49=FIXCLIENT|52=20231228-00:05:36.000|56=FIXSERVER|10=092|8=FIX.4.2|9=62|35=0|34=15|49=FIXCLIENT|52=20231228-00:06:06.000|56=FIXSERVER|10=091|8=FIX.4.2|9=62|35=0|34=16|49=FIXCLIENT|52=20231228-00:06:36.000|56=FIXSERVER|10=095|8=FIX.4.2|9=62|35=0|34=17|49=FIXCLIENT|52=20231228-00:07:06.000|56=FIXSERVER|10=094|8=FIX.4.2|9=62|35=0|34=18|49=FIXCLIENT|52=20231228-00:07:36.000|56=FIXSERVER|10=098|8=FIX.4.2|9=62|35=0|34=19|49=FIXCLIENT|52=20231228-00:08:06.000|56=FIXSERVER|10=097|8=FIX.4.2|9=62|35=0|34=20|49=FIXCLIENT|52=20231228-00:08:36.000|56=FIXSERVER|10=092|8=FIX.4.2|9=62|35=0|34=21|49=FIXCLIENT|52=20231228-00:09:06.000|56=FIXSERVER|10=091|8=FIX.4.2|9=62|35=0|34=22|49=FIXCLIENT|52=20231228-00:09:36.000|56=FIXSERVER|10=095|8=FIX.4.2|9=62|35=0|34=23|49=FIXCLIENT|52=20231228-00:10:06.000|56=FIXSERVER|10=085|8=FIX.4.2|9=62|35=0|34=24|49=FIXCLIENT|52=20231228-00:10:36.000|56=FIXSERVER|10=089|8=FIX.4.2|9=62|35=0|34=25|49=FIXCLIENT|52=20231228-00:11:06.000|56=FIXSERVER|10=088|8=FIX.4.2|9=62|35=0|34=26|49=FIXCLIENT|52=20231228-00:11:36.000|56=FIXSERVER|10=092|8=FIX.4.2|9=62|35=0|34=27|49=FIXCLIENT|52=20231228-00:12:06.000|56=FIXSERVER|10=091|8=FIX.4.2|9=62|35=0|34=28|49=FIXCLIENT|52=20231228-00:12:36.000|56=FIXSERVER|10=095|8=FIX.4.2|9=62|35=0|34=29|49=FIXCLIENT|52=20231228-00:13:06.000|56=FIXSERVER|10=094|8=FIX.4.2|9=62|35=0|34=30|49=FIXCLIENT|52=20231228-00:13:36.000|56=FIXSERVER|10=089|8=FIX.4.2|9=62|35=0|34=31|49=FIXCLIENT|52=20231228-00:14:06.000|56=FIXSERVER|10=088|8=FIX.4.2|9=62|35=0|34=32|49=FIXCLIENT|52=20231228-00:14:36.000|56=FIXSERVER|10=092|8=FIX.4.2|9=62|35=0|34=33|49=FIXCLIENT|52=20231228-00:15:06.000|56=FIXSERVER|10=091|8=FIX.4.2|9=62|35=0|34=34|49=FIXCLIENT|52=20231228-00:15:36.000|56=FIXSERVER|10=095|8=FIX.4.2|9=62|35=0|34=35|49=FIXCLIENT|52=20231228-00:16:06.000|56=FIXSERVER|10=094|8=FIX.4.2|9=62|35=0|34=36|49=FIXCLIENT|52=20231228-00:16:36.000|56=FIXSERVER|10=098|8=FIX.4.2|9=62|35=0|34=37|49=FIXCLIENT|52=20231228-00:17:06.000|56=FIXSERVER|10=097|8=FIX.4.2|9=62|35=0|34=38|49=FIXCLIENT|52=20231228-00:17:36.000|56=FIXSERVER|10=101|8=FIX.4.2|9=62|35=0|34=39|49=FIXCLIENT|52=20231228-00:18:06.000|56=FIXSERVER|10=100|8=FIX.4.2|9=62|35=0|34=40|49=FIXCLIENT|52=20231228-00:18:36.000|56=FIXSERVER|10=095|8=FIX.4.2|9=62|35=0|34=41|49=FIXCLIENT|52=20231228-00:19:06.000|56=FIXSERVER|10=094|8=FIX.4.2|9=74|35=A|34=42|49=FIXCLIENT|52=20231228-00:19:26.000|56=FIXSERVER|98=0|108=30|10=142|8=FIX.4.2|9=97|35=6|34=43|49=FIXCLIENT|52=20231228-00:19:26.000|56=FIXSERVER|23=na|27=S|28=N|50=1234|54=1|55=NA|10=078|8=FIX.4.2|9=62|35=0|34=44|49=FIXCLIENT|52=20231228-00:19:56.000|56=FIXSERVER|10=102|8=FIX.4.2|9=74|35=A|34=45|49=FIXCLIENT|52=20231228-00:20:26.000|56=FIXSERVER|98=0|108=30|10=137|8=FIX.4.2|9=97|35=6|34=46|49=FIXCLIENT|52=20231228-00:20:26.000|56=FIXSERVER|23=na|27=S|28=N|50=1234|54=1|55=NA|10=073|8=FIX.4.2|9=62|35=0|34=47|49=FIXCLIENT|52=20231228-00:20:56.000|56=FIXSERVER|10=097|8=FIX.4.2|9=74|35=A|34=48|49=FIXCLIENT|52=20231228-00:21:26.000|56=FIXSERVER|98=0|108=30|10=141|8=FIX.4.2|9=97|35=6|34=49|49=FIXCLIENT|52=20231228-00:21:26.000|56=FIXSERVER|23=na|27=S|28=N|50=1234|54=1|55=NA|10=077|8=FIX.4.2|9=62|35=0|34=50|49=FIXCLIENT|52=20231228-00:21:56.000|56=FIXSERVER|10=092|8=FIX.4.2|9=62|35=0|34=51|49=FIXCLIENT|52=20231228-00:22:26.000|56=FIXSERVER|10=091|8=FIX.4.2|9=62|35=0|34=52|49=FIXCLIENT|52=20231228-00:22:56.000|56=FIXSERVER|10=095|8=FIX.4.2|9=62|35=0|34=53|49=FIXCLIENT|52=20231228-00:23:26.000|56=FIXSERVER|10=094|8=FIX.4.2|9=62|35=0|34=54|49=FIXCLIENT|52=20231228-00:23:56.000|56=FIXSERVER|10=098|8=FIX.4.2|9=62|35=0|34=55|49=FIXCLIENT|52=20231228-00:24:26.000|56=FIXSERVER|10=097|8=FIX.4.2|9=62|35=0|34=56|49=FIXCLIENT|52=20231228-00:24:56.000|56=FIXSERVER|10=101|8=FIX.4.2|9=62|35=0|34=57|49=FIXCLIENT|52=20231228-00:25:26.000|56=FIXSERVER|10=100|8=FIX.4.2|9=62|35=0|34=58|49=FIXCLIENT|52=20231228-00:25:56.000|56=FIXSERVER|10=104|8=FIX.4.2|9=62|35=0|34=59|49=FIXCLIENT|52=20231228-00:26:26.000|56=FIXSERVER|10=103|8=FIX.4.2|9=62|35=0|34=60|49=FIXCLIENT|52=20231228-00:26:56.000|56=FIXSERVER|10=098|8=FIX.4.2|9=62|35=0|34=61|49=FIXCLIENT|52=20231228-00:27:26.000|56=FIXSERVER|10=097|8=FIX.4.2|9=62|35=0|34=62|49=FIXCLIENT|52=20231228-00:27:56.000|56=FIXSERVER|10=101|8=FIX.4.2|9=62|35=0|34=63|49=FIXCLIENT|52=20231228-00:28:26.000|56=FIXSERVER|10=100|8=FIX.4.2|9=62|35=0|34=64|49=FIXCLIENT|52=20231228-00:28:56.000|56=FIXSERVER|10=104|8=FIX.4.2|9=62|35=0|34=65|49=FIXCLIENT|52=20231228-00:29:26.000|56=FIXSERVER|10=103|8=FIX.4.2|9=62|35=0|34=66|49=FIXCLIENT|52=20231228-00:29:56.000|56=FIXSERVER|10=107|8=FIX.4.2|9=62|35=0|34=67|49=FIXCLIENT|52=20231228-00:30:26.000|56=FIXSERVER|10=097|8=FIX.4.2|9=62|35=0|34=68|49=FIXCLIENT|52=20231228-00:30:56.000|56=FIXSERVER|10=101|8=FIX.4.2|9=62|35=0|34=69|49=FIXCLIENT|52=20231228-00:31:26.000|56=FIXSERVER|10=100|8=FIX.4.2|9=62|35=0|34=70|49=FIXCLIENT|52=20231228-00:31:56.000|56=FIXSERVER|10=095|8=FIX.4.2|9=62|35=0|34=71|49=FIXCLIENT|52=20231228-00:32:26.000|56=FIXSERVER|10=094|8=FIX.4.2|9=62|35=0|34=72|49=FIXCLIENT|52=20231228-00:32:56.000|56=FIXSERVER|10=098|8=FIX.4.2|9=62|35=0|34=73|49=FIXCLIENT|52=20231228-00:33:26.000|56=FIXSERVER|10=097|8=FIX.4.2|9=62|35=0|34=74|49=FIXCLIENT|52=20231228-00:33:56.000|56=FIXSERVER|10=101|8=FIX.4.2|9=62|35=0|34=75|49=FIXCLIENT|52=20231228-00:34:26.000|56=FIXSERVER|10=100|8=FIX.4.2|9=62|35=0|34=76|49=FIXCLIENT|52=20231228-00:34:56.000|56=FIXSERVER|10=104|8=FIX.4.2|9=62|35=0|34=77|49=FIXCLIENT|52=20231228-00:35:26.000|56=FIXSERVER|10=103|8=FIX.4.2|9=62|35=0|34=78|49=FIXCLIENT|52=20231228-00:35:56.000|56=FIXSERVER|10=107|8=FIX.4.2|9=62|35=0|34=79|49=FIXCLIENT|52=20231228-00:36:26.000|56=FIXSERVER|10=106|8=FIX.4.2|9=62|35=0|34=80|49=FIXCLIENT|52=20231228-00:36:56.000|56=FIXSERVER|10=101|8=FIX.4.2|9=62|35=0|34=81|49=FIXCLIENT|52=20231228-00:37:26.000|56=FIXSERVER|10=100|8=FIX.4.2|9=62|35=0|34=82|49=FIXCLIENT|52=20231228-00:37:56.000|56=FIXSERVER|10=104|8=FIX.4.2|9=62|35=0|34=83|49=FIXCLIENT|52=20231228-00:38:26.000|56=FIXSERVER|10=103|8=FIX.4.2|9=62|35=0|34=84|49=FIXCLIENT|52=20231228-00:38:56.000|56=FIXSERVER|10=107|8=FIX.4.2|9=62|35=0|34=85|49=FIXCLIENT|52=20231228-00:39:26.000|56=FIXSERVER|10=106|8=FIX.4.2|9=62|35=0|34=86|49=FIXCLIENT|52=20231228-00:39:56.000|56=FIXSERVER|10=110|8=FIX.4.2|9=62|35=0|34=87|49=FIXCLIENT|52=20231228-00:40:26.000|56=FIXSERVER|10=100|8=FIX.4.2|9=62|35=0|34=88|49=FIXCLIENT|52=20231228-00:40:56.000|56=FIXSERVER|10=104|8=FIX.4.2|9=62|35=0|34=89|49=FIXCLIENT|52=20231228-00:41:26.000|56=FIXSERVER|10=103|8=FIX.4.2|9=62|35=0|34=90|49=FIXCLIENT|52=20231228-00:41:56.000|56=FIXSERVER|10=098|8=FIX.4.2|9=62|35=0|34=91|49=FIXCLIENT|52=20231228-00:42:26.000|56=FIXSERVER|10=097|8=FIX.4.2|9=62|35=0|34=92|49=FIXCLIENT|52=20231228-00:42:56.000|56=FIXSERVER|10=101|8=FIX.4.2|9=62|35=0|34=93|49=FIXCLIENT|52=20231228-00:43:26.000|56=FIXSERVER|10=100|8=FIX.4.2|9=62|35=0|34=94|49=FIXCLIENT|52=20231228-00:43:56.000|56=FIXSERVER|10=104|8=FIX.4.2|9=62|35=0|34=95|49=FIXCLIENT|52=20231228-00:44:26.000|56=FIXSERVER|10=103|8=FIX.4.2|9=62|35=0|34=96|49=FIXCLIENT|52=20231228-00:44:56.000|56=FIXSERVER|10=107|8=FIX.4.2|9=62|35=0|34=97|49=FIXCLIENT|52=20231228-00:45:26.000|56=FIXSERVER|10=106|8=FIX.4.2|9=62|35=0|34=98|49=FIXCLIENT|52=20231228-00:45:56.000|56=FIXSERVER|10=110|8=FIX.4.2|9=62|35=0|34=99|49=FIXCLIENT|52=20231228-00:46:26.000|56=FIXSERVER|10=109|8=FIX.4.2|9=75|35=A|34=100|49=FIXCLIENT|52=20231228-00:46:46.000|56=FIXSERVER|98=0|108=30|10=188|8=FIX.4.2|9=75|35=A|34=101|49=FIXCLIENT|52=20231228-00:47:06.000|56=FIXSERVER|98=0|108=30|10=186|8=FIX.4.2|9=98|35=6|34=102|49=FIXCLIENT|52=20231228-00:47:06.000|56=FIXSERVER|23=na|27=S|28=N|50=1234|54=1|55=NA|10=122|8=FIX.4.2|9=63|35=0|34=103|49=FIXCLIENT|52=20231228-00:47:36.000|56=FIXSERVER|10=146|8=FIX.4.2|9=63|35=0|34=104|49=FIXCLIENT|52=20231228-00:48:06.000|56=FIXSERVER|10=145|8=FIX.4.2|9=63|35=0|34=105|49=FIXCLIENT|52=20231228-00:48:36.000|56=FIXSERVER|10=149|8=FIX.4.2|9=63|35=0|34=106|49=FIXCLIENT|52=20231228-00:49:06.000|56=FIXSERVER|10=148|8=FIX.4.2|9=63|35=0|34=107|49=FIXCLIENT|52=20231228-00:49:36.000|56=FIXSERVER|10=152|8=FIX.4.2|9=63|35=0|34=108|49=FIXCLIENT|52=20231228-00:50:06.000|56=FIXSERVER|10=142|8=FIX.4.2|9=75|35=A|34=109|49=FIXCLIENT|52=20231228-00:50:46.000|56=FIXSERVER|98=0|108=30|10=192|8=FIX.4.2|9=98|35=6|34=110|49=FIXCLIENT|52=20231228-00:50:46.000|56=FIXSERVER|23=na|27=S|28=N|50=1234|54=1|55=NA|10=119|8=FIX.4.2|9=63|35=0|34=111|49=FIXCLIENT|52=20231228-00:51:16.000|56=FIXSERVER|10=138|8=FIX.4.2|9=75|35=A|34=112|49=FIXCLIENT|52=20231228-00:51:46.000|56=FIXSERVER|98=0|108=30|10=187|8=FIX.4.2|9=98|35=6|34=113|49=FIXCLIENT|52=20231228-00:51:46.000|56=FIXSERVER|23=na|27=S|28=N|50=1234|54=1|55=NA|10=123|8=FIX.4.2|9=63|35=0|34=114|49=FIXCLIENT|52=20231228-00:52:16.000|56=FIXSERVER|10=142|8=FIX.4.2|9=75|35=A|34=115|49=FIXCLIENT|52=20231228-00:52:26.000|56=FIXSERVER|98=0|108=30|10=189|8=FIX.4.2|9=98|35=6|34=116|49=FIXCLIENT|52=20231228-00:52:26.000|56=FIXSERVER|23=na|27=S|28=N|50=1234|54=1|55=NA|10=125|8=FIX.4.2|9=63|35=0|34=117|49=FIXCLIENT|52=20231228-00:52:56.000|56=FIXSERVER|10=149|8=FIX.4.2|9=75|35=A|34=118|49=FIXCLIENT|52=20231228-00:53:26.000|56=FIXSERVER|98=0|108=30|10=193|8=FIX.4.2|9=98|35=6|34=119|49=FIXCLIENT|52=20231228-00:53:26.000|56=FIXSERVER|23=na|27=S|28=N|50=1234|54=1|55=NA|10=129|8=FIX.4.2|9=63|35=0|34=120|49=FIXCLIENT|52=20231228-00:53:56.000|56=FIXSERVER|10=144|8=FIX.4.2|9=63|35=0|34=121|49=FIXCLIENT|52=20231228-00:54:26.000|56=FIXSERVER|10=143|8=FIX.4.2|9=75|35=A|34=122|49=FIXCLIENT|52=20231228-00:54:46.000|56=FIXSERVER|98=0|108=30|10=191|8=FIX.4.2|9=98|35=6|34=123|49=FIXCLIENT|52=20231228-00:54:46.000|56=FIXSERVER|23=na|27=S|28=N|50=1234|54=1|55=NA|10=127|8=FIX.4.2|9=63|35=0|34=124|49=FIXCLIENT|52=20231228-00:55:16.000|56=FIXSERVER|10=146|8=FIX.4.2|9=75|35=A|34=125|49=FIXCLIENT|52=20231228-00:55:46.000|56=FIXSERVER|98=0|108=30|10=195|8=FIX.4.2|9=98|35=6|34=126|49=FIXCLIENT|52=20231228-00:55:46.000|56=FIXSERVER|23=na|27=S|28=N|50=1234|54=1|55=NA|10=131|8=FIX.4.2|9=63|35=0|34=127|49=FIXCLIENT|52=20231228-00:56:16.000|56=FIXSERVER|10=150|8=FIX.4.2|9=72|35=1|34=128|49=FIXCLIENT|52=20231228-00:56:22.000|56=FIXSERVER|112=TEST|10=167|8=FIX.4.2|9=75|35=A|34=129|49=FIXCLIENT|52=20231228-00:56:58.000|56=FIXSERVER|98=0|108=30|10=203|8=FIX.4.2|9=75|35=A|34=130|49=FIXCLIENT|52=20231228-00:57:06.000|56=FIXSERVER|98=0|108=30|10=189|8=FIX.4.2|9=75|35=A|34=131|49=FIXCLIENT|52=20231228-00:57:16.000|56=FIXSERVER|98=0|108=30|10=191|8=FIX.4.2|9=75|35=A|34=132|49=FIXCLIENT|52=20231228-00:57:26.000|56=FIXSERVER|98=0|108=30|10=193|8=FIX.4.2|9=75|35=A|34=133|49=FIXCLIENT|52=20231228-00:57:46.000|56=FIXSERVER|98=0|108=30|10=196|8=FIX.4.2|9=98|35=6|34=134|49=FIXCLIENT|52=20231228-00:57:46.000|56=FIXSERVER|23=na|27=S|28=N|50=1234|54=1|55=NA|10=132|8=FIX.4.2|9=63|35=0|34=135|49=FIXCLIENT|52=20231228-00:58:16.000|56=FIXSERVER|10=151|8=FIX.4.2|9=72|35=1|34=136|49=FIXCLIENT|52=20231228-00:58:22.000|56=FIXSERVER|112=TEST|10=168|8=FIX.4.2|9=75|35=A|34=137|49=FIXCLIENT|52=20231228-00:58:26.000|56=FIXSERVER|98=0|108=30|10=199|8=FIX.4.2|9=98|35=6|34=138|49=FIXCLIENT|52=20231228-00:58:26.000|56=FIXSERVER|23=na|27=S|28=N|50=1234|54=1|55=NA|10=135|8=FIX.4.2|9=63|35=0|34=139|49=FIXCLIENT|52=20231228-00:58:56.000|56=FIXSERVER|10=159|8=FIX.4.2|9=72|35=1|34=140|49=FIXCLIENT|52=20231228-00:59:02.000|56=FIXSERVER|112=TEST|10=162|8=FIX.4.2|9=75|35=A|34=141|49=FIXCLIENT|52=20231228-00:59:38.000|56=FIXSERVER|98=0|108=30|10=198|8=FIX.4.2|9=75|35=A|34=142|49=FIXCLIENT|52=20231228-00:59:46.000|56=FIXSERVER|98=0|108=30|10=198|8=FIX.4.2|9=75|35=A|34=143|49=FIXCLIENT|52=20231228-01:00:06.000|56=FIXSERVER|98=0|108=30|10=182|8=FIX.4.2|9=98|35=6|34=144|49=FIXCLIENT|52=20231228-01:00:06.000|56=FIXSERVER|23=na|27=S|28=N|50=1234|54=1|55=NA|10=118|8=FIX.4.2|9=63|35=0|34=145|49=FIXCLIENT|52=20231228-01:00:36.000|56=FIXSERVER|10=142|8=FIX.4.2|9=72|35=1|34=146|49=FIXCLIENT|52=20231228-01:00:42.000|56=FIXSERVER|112=TEST|10=159|8=FIX.4.2|9=75|35=A|34=147|49=FIXCLIENT|52=20231228-01:01:26.000|56=FIXSERVER|98=0|108=30|10=189|8=FIX.4.2|9=98|35=6|34=148|49=FIXCLIENT|52=20231228-01:01:26.000|56=FIXSERVER|23=na|27=S|28=N|50=1234|54=1|55=NA|10=125|8=FIX.4.2|9=63|35=0|34=149|49=FIXCLIENT|52=20231228-01:01:56.000|56=FIXSERVER|10=149|8=FIX.4.2|9=72|35=1|34=150|49=FIXCLIENT|52=20231228-01:02:02.000|56=FIXSERVER|112=TEST|10=152|8=FIX.4.2|9=75|35=A|34=151|49=FIXCLIENT|52=20231228-01:02:06.000|56=FIXSERVER|98=0|108=30|10=183|8=FIX.4.2|9=98|35=6|34=152|49=FIXCLIENT|52=20231228-01:02:06.000|56=FIXSERVER|23=na|27=S|28=N|50=1234|54=1|55=NA|10=119|8=FIX.4.2|9=113|35=3|34=153|49=FIXCLIENT|52=20231228-01:02:06.000|56=FIXSERVER|45=126|58=Required tag missing|371=11|372=D|373=1|10=194|8=FIX.4.2|9=113|35=3|34=154|49=FIXCLIENT|52=20231228-01:02:06.000|56=FIXSERVER|45=127|58=Required tag missing|371=11|372=D|373=1|10=196|8=FIX.4.2|9=113|35=3|34=155|49=FIXCLIENT|52=20231228-01:02:06.000|56=FIXSERVER|45=128|58=Required tag missing|371=11|372=D|373=1|10=198|8=FIX.4.2|9=113|35=3|34=156|49=FIXCLIENT|52=20231228-01:02:06.000|56=FIXSERVER|45=129|58=Required tag missing|371=11|372=D|373=1|10=200|8=FIX.4.2|9=113|35=3|34=157|49=FIXCLIENT|52=20231228-01:02:06.000|56=FIXSERVER|45=130|58=Required tag missing|371=11|372=D|373=1|10=193|8=FIX.4.2|9=113|35=3|34=158|49=FIXCLIENT|52=20231228-01:02:06.000|56=FIXSERVER|45=131|58=Required tag missing|371=11|372=D|373=1|10=195|8=FIX.4.2|9=113|35=3|34=159|49=FIXCLIENT|52=20231228-01:02:06.000|56=FIXSERVER|45=132|58=Required tag missing|371=11|372=D|373=1|10=197|8=FIX.4.2|9=113|35=3|34=160|49=FIXCLIENT|52=20231228-01:02:06.000|56=FIXSERVER|45=133|58=Required tag missing|371=11|372=D|373=1|10=190|8=FIX.4.2|9=113|35=3|34=161|49=FIXCLIENT|52=20231228-01:02:06.000|56=FIXSERVER|45=134|58=Required tag missing|371=11|372=D|373=1|10=192|8=FIX.4.2|9=113|35=3|34=162|49=FIXCLIENT|52=20231228-01:02:06.000|56=FIXSERVER|45=135|58=Required tag missing|371=11|372=D|373=1|10=194|8=FIX.4.2|9=113|35=3|34=163|49=FIXCLIENT|52=20231228-01:02:06.000|56=FIXSERVER|45=136|58=Required tag missing|371=11|372=D|373=1|10=196|8=FIX.4.2|9=113|35=3|34=164|49=FIXCLIENT|52=20231228-01:02:06.000|56=FIXSERVER|45=137|58=Required tag missing|371=11|372=D|373=1|10=198|8=FIX.4.2|9=113|35=3|34=165|49=FIXCLIENT|52=20231228-01:02:06.000|56=FIXSERVER|45=138|58=Required tag missing|371=11|372=D|373=1|10=200|8=FIX.4.2|9=113|35=3|34=166|49=FIXCLIENT|52=20231228-01:02:06.000|56=FIXSERVER|45=139|58=Required tag missing|371=11|372=D|373=1|10=202|8=FIX.4.2|9=113|35=3|34=167|49=FIXCLIENT|52=20231228-01:02:06.000|56=FIXSERVER|45=140|58=Required tag missing|371=11|372=D|373=1|10=195|8=FIX.4.2|9=113|35=3|34=168|49=FIXCLIENT|52=20231228-01:02:06.000|56=FIXSERVER|45=141|58=Required tag missing|371=11|372=D|373=1|10=197|8=FIX.4.2|9=113|35=3|34=169|49=FIXCLIENT|52=20231228-01:02:06.000|56=FIXSERVER|45=142|58=Required tag missing|371=11|372=D|373=1|10=199|8=FIX.4.2|9=113|35=3|34=170|49=FIXCLIENT|52=20231228-01:02:06.000|56=FIXSERVER|45=143|58=Required tag missing|371=11|372=D|373=1|10=192|8=FIX.4.2|9=63|35=0|34=171|49=FIXCLIENT|52=20231228-01:02:36.000|56=FIXSERVER|10=143|8=FIX.4.2|9=63|35=0|34=172|49=FIXCLIENT|52=20231228-01:03:06.000|56=FIXSERVER|10=142|8=FIX.4.2|9=63|35=0|34=173|49=FIXCLIENT|52=20231228-01:03:36.000|56=FIXSERVER|10=146|8=FIX.4.2|9=63|35=0|34=174|49=FIXCLIENT|52=20231228-01:04:06.000|56=FIXSERVER|10=145|8=FIX.4.2|9=63|35=0|34=175|49=FIXCLIENT|52=20231228-01:04:36.000|56=FIXSERVER|10=149|8=FIX.4.2|9=63|35=0|34=176|49=FIXCLIENT|52=20231228-01:05:06.000|56=FIXSERVER|10=148|8=FIX.4.2|9=63|35=0|34=177|49=FIXCLIENT|52=20231228-01:05:36.000|56=FIXSERVER|10=152|8=FIX.4.2|9=63|35=0|34=178|49=FIXCLIENT|52=20231228-01:06:06.000|56=FIXSERVER|10=151|8=FIX.4.2|9=63|35=0|34=179|49=FIXCLIENT|52=20231228-01:06:36.000|56=FIXSERVER|10=155|8=FIX.4.2|9=63|35=0|34=180|49=FIXCLIENT|52=20231228-01:07:06.000|56=FIXSERVER|10=145|8=FIX.4.2|9=63|35=0|34=181|49=FIXCLIENT|52=20231228-01:07:36.000|56=FIXSERVER|10=149|8=FIX.4.2|9=63|35=0|34=182|49=FIXCLIENT|52=20231228-01:08:06.000|56=FIXSERVER|10=148|8=FIX.4.2|9=63|35=0|34=183|49=FIXCLIENT|52=20231228-01:08:36.000|56=FIXSERVER|10=152|8=FIX.4.2|9=63|35=0|34=184|49=FIXCLIENT|52=20231228-01:09:06.000|56=FIXSERVER|10=151|8=FIX.4.2|9=63|35=0|34=185|49=FIXCLIENT|52=20231228-01:09:36.000|56=FIXSERVER|10=155|8=FIX.4.2|9=63|35=0|34=186|49=FIXCLIENT|52=20231228-01:10:06.000|56=FIXSERVER|10=145|8=FIX.4.2|9=63|35=0|34=187|49=FIXCLIENT|52=20231228-01:10:36.000|56=FIXSERVER|10=149|8=FIX.4.2|9=63|35=0|34=188|49=FIXCLIENT|52=20231228-01:11:06.000|56=FIXSERVER|10=148|8=FIX.4.2|9=63|35=0|34=189|49=FIXCLIENT|52=20231228-01:11:36.000|56=FIXSERVER|10=152|8=FIX.4.2|9=63|35=0|34=190|49=FIXCLIENT|52=20231228-01:12:06.000|56=FIXSERVER|10=142|8=FIX.4.2|9=63|35=0|34=191|49=FIXCLIENT|52=20231228-01:12:36.000|56=FIXSERVER|10=146|8=FIX.4.2|9=75|35=A|34=192|49=FIXCLIENT|52=20231228-01:12:46.000|56=FIXSERVER|98=0|108=30|10=193|8=FIX.4.2|9=75|35=A|34=193|49=FIXCLIENT|52=20231228-01:13:06.000|56=FIXSERVER|98=0|108=30|10=191|8=FIX.4.2|9=75|35=A|34=194|49=FIXCLIENT|52=20231228-01:13:26.000|56=FIXSERVER|98=0|108=30|10=194|8=FIX.4.2|9=75|35=A|34=195|49=FIXCLIENT|52=20231228-01:13:46.000|56=FIXSERVER|98=0|108=30|10=197|8=FIX.4.2|9=75|35=A|34=196|49=FIXCLIENT|52=20231228-01:14:06.000|56=FIXSERVER|98=0|108=30|10=195|8=FIX.4.2|9=75|35=A|34=197|49=FIXCLIENT|52=20231228-01:14:26.000|56=FIXSERVER|98=0|108=30|10=198|8=FIX.4.2|9=75|35=A|34=198|49=FIXCLIENT|52=20231228-01:14:46.000|56=FIXSERVER|98=0|108=30|10=201|8=FIX.4.2|9=75|35=A|34=199|49=FIXCLIENT|52=20231228-01:15:06.000|56=FIXSERVER|98=0|108=30|10=199|8=FIX.4.2|9=75|35=A|34=200|49=FIXCLIENT|52=20231228-01:15:26.000|56=FIXSERVER|98=0|108=30|10=184|8=FIX.4.2|9=98|35=6|34=201|49=FIXCLIENT|52=20231228-01:15:26.000|56=FIXSERVER|23=na|27=S|28=N|50=1234|54=1|55=NA|10=120|8=FIX.4.2|9=63|35=0|34=202|49=FIXCLIENT|52=20231228-01:15:56.000|56=FIXSERVER|10=144|8=FIX.4.2|9=72|35=1|34=203|49=FIXCLIENT|52=20231228-01:16:02.000|56=FIXSERVER|112=TEST|10=156|8=FIX.4.2|9=75|35=A|34=204|49=FIXCLIENT|52=20231228-01:16:26.000|56=FIXSERVER|98=0|108=30|10=189|8=FIX.4.2|9=98|35=6|34=205|49=FIXCLIENT|52=20231228-01:16:26.000|56=FIXSERVER|23=na|27=S|28=N|50=1234|54=1|55=NA|10=125|8=FIX.4.2|9=122|35=3|34=206|49=FIXCLIENT|52=20231228-01:16:26.000|56=FIXSERVER|45=169|58=Tag specified out of required order|371=34|372=D|10=035|8=FIX.4.2|9=122|35=3|34=207|49=FIXCLIENT|52=20231228-01:16:26.000|56=FIXSERVER|45=170|58=Tag specified out of required order|371=34|372=D|10=028|8=FIX.4.2|9=122|35=3|34=208|49=FIXCLIENT|52=20231228-01:16:26.000|56=FIXSERVER|45=171|58=Tag specified out of required order|371=34|372=D|10=030|8=FIX.4.2|9=122|35=3|34=209|49=FIXCLIENT|52=20231228-01:16:26.000|56=FIXSERVER|45=172|58=Tag specified out of required order|371=34|372=D|10=032|8=FIX.4.2|9=122|35=3|34=210|49=FIXCLIENT|52=20231228-01:16:26.000|56=FIXSERVER|45=173|58=Tag specified out of required order|371=34|372=D|10=025|8=FIX.4.2|9=122|35=3|34=211|49=FIXCLIENT|52=20231228-01:16:26.000|56=FIXSERVER|45=174|58=Tag specified out of required order|371=34|372=D|10=027|8=FIX.4.2|9=63|35=0|34=212|49=FIXCLIENT|52=20231228-01:16:56.000|56=FIXSERVER|10=146|8=FIX.4.2|9=63|35=0|34=213|49=FIXCLIENT|52=20231228-01:17:26.000|56=FIXSERVER|10=145|8=FIX.4.2|9=63|35=0|34=214|49=FIXCLIENT|52=20231228-01:17:56.000|56=FIXSERVER|10=149|8=FIX.4.2|9=63|35=0|34=215|49=FIXCLIENT|52=20231228-01:18:26.000|56=FIXSERVER|10=148|8=FIX.4.2|9=75|35=A|34=216|49=FIXCLIENT|52=20231228-01:18:46.000|56=FIXSERVER|98=0|108=30|10=196|8=FIX.4.2|9=98|35=6|34=217|49=FIXCLIENT|52=20231228-01:18:46.000|56=FIXSERVER|23=na|27=S|28=N|50=1234|54=1|55=NA|10=132|8=FIX.4.2|9=122|35=3|34=218|49=FIXCLIENT|52=20231228-01:18:46.000|56=FIXSERVER|45=180|58=Tag specified out of required order|371=34|372=D|10=035|8=FIX.4.2|9=122|35=3|34=219|49=FIXCLIENT|52=20231228-01:18:46.000|56=FIXSERVER|45=181|58=Tag specified out of required order|371=34|372=D|10=037|8=FIX.4.2|9=122|35=3|34=220|49=FIXCLIENT|52=20231228-01:18:46.000|56=FIXSERVER|45=182|58=Tag specified out of required order|371=34|372=D|10=030|8=FIX.4.2|9=75|35=A|34=221|49=FIXCLIENT|52=20231228-01:19:54.000|56=FIXSERVER|98=0|108=30|10=192|8=FIX.4.2|9=98|35=6|34=222|49=FIXCLIENT|52=20231228-01:19:54.000|56=FIXSERVER|23=na|27=S|28=N|50=1234|54=1|55=NA|10=128|8=FIX.4.2|9=113|35=3|34=223|49=FIXCLIENT|52=20231228-01:19:54.000|56=FIXSERVER|45=184|58=Required tag missing|371=21|372=D|373=1|10=208|8=FIX.4.2|9=113|35=3|34=224|49=FIXCLIENT|52=20231228-01:19:54.000|56=FIXSERVER|45=185|58=Required tag missing|371=21|372=D|373=1|10=210|8=FIX.4.2|9=113|35=3|34=225|49=FIXCLIENT|52=20231228-01:19:54.000|56=FIXSERVER|45=186|58=Required tag missing|371=21|372=D|373=1|10=212|8=FIX.4.2|9=63|35=0|34=226|49=FIXCLIENT|52=20231228-01:20:24.000|56=FIXSERVER|10=141|8=FIX.4.2|9=63|35=0|34=227|49=FIXCLIENT|52=20231228-01:20:54.000|56=FIXSERVER|10=145|8=FIX.4.2|9=63|35=0|34=228|49=FIXCLIENT|52=20231228-01:21:24.000|56=FIXSERVER|10=144|8=FIX.4.2|9=63|35=0|34=229|49=FIXCLIENT|52=20231228-01:21:54.000|56=FIXSERVER|10=148|8=FIX.4.2|9=63|35=0|34=230|49=FIXCLIENT|52=20231228-01:22:24.000|56=FIXSERVER|10=138|8=FIX.4.2|9=63|35=0|34=231|49=FIXCLIENT|52=20231228-01:22:54.000|56=FIXSERVER|10=142|8=FIX.4.2|9=63|35=0|34=232|49=FIXCLIENT|52=20231228-01:23:24.000|56=FIXSERVER|10=141|8=FIX.4.2|9=63|35=0|34=233|49=FIXCLIENT|52=20231228-01:23:54.000|56=FIXSERVER|10=145|8=FIX.4.2|9=63|35=0|34=234|49=FIXCLIENT|52=20231228-01:24:24.000|56=FIXSERVER|10=144|8=FIX.4.2|9=63|35=0|34=235|49=FIXCLIENT|52=20231228-01:24:54.000|56=FIXSERVER|10=148|8=FIX.4.2|9=63|35=0|34=236|49=FIXCLIENT|52=20231228-01:25:24.000|56=FIXSERVER|10=147|8=FIX.4.2|9=63|35=0|34=237|49=FIXCLIENT|52=20231228-01:25:54.000|56=FIXSERVER|10=151|8=FIX.4.2|9=63|35=0|34=238|49=FIXCLIENT|52=20231228-01:26:24.000|56=FIXSERVER|10=150|8=FIX.4.2|9=63|35=0|34=239|49=FIXCLIENT|52=20231228-01:26:54.000|56=FIXSERVER|10=154|8=FIX.4.2|9=63|35=0|34=240|49=FIXCLIENT|52=20231228-01:27:24.000|56=FIXSERVER|10=144|8=FIX.4.2|9=63|35=0|34=241|49=FIXCLIENT|52=20231228-01:27:54.000|56=FIXSERVER|10=148|8=FIX.4.2|9=63|35=0|34=242|49=FIXCLIENT|52=20231228-01:28:24.000|56=FIXSERVER|10=147|8=FIX.4.2|9=63|35=0|34=243|49=FIXCLIENT|52=20231228-01:28:54.000|56=FIXSERVER|10=151|8=FIX.4.2|9=63|35=0|34=244|49=FIXCLIENT|52=20231228-01:29:24.000|56=FIXSERVER|10=150|8=FIX.4.2|9=63|35=0|34=245|49=FIXCLIENT|52=20231228-01:29:54.000|56=FIXSERVER|10=154|8=FIX.4.2|9=63|35=0|34=246|49=FIXCLIENT|52=20231228-01:30:24.000|56=FIXSERVER|10=144|8=FIX.4.2|9=75|35=A|34=247|49=FIXCLIENT|52=20231228-01:30:34.000|56=FIXSERVER|98=0|108=30|10=191|8=FIX.4.2|9=98|35=6|34=248|49=FIXCLIENT|52=20231228-01:30:34.000|56=FIXSERVER|23=na|27=S|28=N|50=1234|54=1|55=NA|10=127|8=FIX.4.2|9=113|35=3|34=249|49=FIXCLIENT|52=20231228-01:30:34.000|56=FIXSERVER|45=209|58=Required tag missing|371=21|372=D|373=1|10=205|8=FIX.4.2|9=113|35=3|34=250|49=FIXCLIENT|52=20231228-01:30:34.000|56=FIXSERVER|45=210|58=Required tag missing|371=21|372=D|373=1|10=189|8=FIX.4.2|9=113|35=3|34=251|49=FIXCLIENT|52=20231228-01:30:34.000|56=FIXSERVER|45=211|58=Required tag missing|371=21|372=D|373=1|10=191|8=FIX.4.2|9=63|35=0|34=252|49=FIXCLIENT|52=20231228-01:31:04.000|56=FIXSERVER|10=140|8=FIX.4.2|9=63|35=0|34=253|49=FIXCLIENT|52=20231228-01:31:34.000|56=FIXSERVER|10=144|8=FIX.4.2|9=75|35=A|34=254|49=FIXCLIENT|52=20231228-01:31:54.000|56=FIXSERVER|98=0|108=30|10=192|8=FIX.4.2|9=98|35=6|34=255|49=FIXCLIENT|52=20231228-01:31:54.000|56=FIXSERVER|23=na|27=S|28=N|50=1234|54=1|55=NA|10=128|8=FIX.4.2|9=113|35=3|34=256|49=FIXCLIENT|52=20231228-01:31:54.000|56=FIXSERVER|45=215|58=Required tag missing|371=11|372=D|373=1|10=202|8=FIX.4.2|9=113|35=3|34=257|49=FIXCLIENT|52=20231228-01:31:54.000|56=FIXSERVER|45=216|58=Required tag missing|371=11|372=D|373=1|10=204|8=FIX.4.2|9=113|35=3|34=258|49=FIXCLIENT|52=20231228-01:31:54.000|56=FIXSERVER|45=217|58=Required tag missing|371=11|372=D|373=1|10=206|8=FIX.4.2|9=63|35=0|34=259|49=FIXCLIENT|52=20231228-01:32:24.000|56=FIXSERVER|10=150|8=FIX.4.2|9=63|35=0|34=260|49=FIXCLIENT|52=20231228-01:32:54.000|56=FIXSERVER|10=145|8=FIX.4.2|9=75|35=A|34=261|49=FIXCLIENT|52=20231228-01:33:14.000|56=FIXSERVER|98=0|108=30|10=188|8=FIX.4.2|9=98|35=6|34=262|49=FIXCLIENT|52=20231228-01:33:14.000|56=FIXSERVER|23=na|27=S|28=N|50=1234|54=1|55=NA|10=124|8=FIX.4.2|9=113|35=3|34=263|49=FIXCLIENT|52=20231228-01:33:14.000|56=FIXSERVER|45=221|58=Required tag missing|371=21|372=D|373=1|10=196|8=FIX.4.2|9=113|35=3|34=264|49=FIXCLIENT|52=20231228-01:33:14.000|56=FIXSERVER|45=222|58=Required tag missing|371=21|372=D|373=1|10=198|8=FIX.4.2|9=113|35=3|34=265|49=FIXCLIENT|52=20231228-01:33:14.000|56=FIXSERVER|45=223|58=Required tag missing|371=21|372=D|373=1|10=200|8=FIX.4.2|9=63|35=0|34=266|49=FIXCLIENT|52=20231228-01:33:44.000|56=FIXSERVER|10=151|8=FIX.4.2|9=63|35=0|34=267|49=FIXCLIENT|52=20231228-01:34:14.000|56=FIXSERVER|10=150|8=FIX.4.2|9=75|35=A|34=268|49=FIXCLIENT|52=20231228-01:34:34.000|56=FIXSERVER|98=0|108=30|10=198|8=FIX.4.2|9=98|35=6|34=269|49=FIXCLIENT|52=20231228-01:34:34.000|56=FIXSERVER|23=na|27=S|28=N|50=1234|54=1|55=NA|10=134|8=FIX.4.2|9=113|35=3|34=270|49=FIXCLIENT|52=20231228-01:34:34.000|56=FIXSERVER|45=227|58=Required tag missing|371=60|372=D|373=1|10=206|8=FIX.4.2|9=113|35=3|34=271|49=FIXCLIENT|52=20231228-01:34:34.000|56=FIXSERVER|45=228|58=Required tag missing|371=60|372=D|373=1|10=208|8=FIX.4.2|9=113|35=3|34=272|49=FIXCLIENT|52=20231228-01:34:34.000|56=FIXSERVER|45=229|58=Required tag missing|371=60|372=D|373=1|10=210|8=FIX.4.2|9=63|35=0|34=273|49=FIXCLIENT|52=20231228-01:35:04.000|56=FIXSERVER|10=147|8=FIX.4.2|9=63|35=0|34=274|49=FIXCLIENT|52=20231228-01:35:34.000|56=FIXSERVER|10=151|8=FIX.4.2|9=63|35=0|34=275|49=FIXCLIENT|52=20231228-01:36:04.000|56=FIXSERVER|10=150|8=FIX.4.2|9=63|35=0|34=276|49=FIXCLIENT|52=20231228-01:36:34.000|56=FIXSERVER|10=154|8=FIX.4.2|9=63|35=0|34=277|49=FIXCLIENT|52=20231228-01:37:04.000|56=FIXSERVER|10=153|8=FIX.4.2|9=63|35=0|34=278|49=FIXCLIENT|52=20231228-01:37:34.000|56=FIXSERVER|10=157|8=FIX.4.2|9=63|35=0|34=279|49=FIXCLIENT|52=20231228-01:38:04.000|56=FIXSERVER|10=156|8=FIX.4.2|9=63|35=0|34=280|49=FIXCLIENT|52=20231228-01:38:34.000|56=FIXSERVER|10=151|8=FIX.4.2|9=63|35=0|34=281|49=FIXCLIENT|52=20231228-01:39:04.000|56=FIXSERVER|10=150|8=FIX.4.2|9=63|35=0|34=282|49=FIXCLIENT|52=20231228-01:39:34.000|56=FIXSERVER|10=154|8=FIX.4.2|9=63|35=0|34=283|49=FIXCLIENT|52=20231228-01:40:04.000|56=FIXSERVER|10=144|8=FIX.4.2|9=63|35=0|34=284|49=FIXCLIENT|52=20231228-01:40:34.000|56=FIXSERVER|10=148|8=FIX.4.2|9=63|35=0|34=285|49=FIXCLIENT|52=20231228-01:41:04.000|56=FIXSERVER|10=147|8=FIX.4.2|9=75|35=A|34=286|49=FIXCLIENT|52=20231228-01:41:34.000|56=FIXSERVER|98=0|108=30|10=196|8=FIX.4.2|9=98|35=6|34=287|49=FIXCLIENT|52=20231228-01:41:34.000|56=FIXSERVER|23=na|27=S|28=N|50=1234|54=1|55=NA|10=132|8=FIX.4.2|9=63|35=0|34=288|49=FIXCLIENT|52=20231228-01:42:04.000|56=FIXSERVER|10=151|8=FIX.4.2|9=72|35=1|34=289|49=FIXCLIENT|52=20231228-01:42:10.000|56=FIXSERVER|112=TEST|10=168|8=FIX.4.2|9=75|35=A|34=290|49=FIXCLIENT|52=20231228-01:42:46.000|56=FIXSERVER|98=0|108=30|10=195|8=FIX.4.2|9=75|35=A|34=291|49=FIXCLIENT|52=20231228-01:42:54.000|56=FIXSERVER|98=0|108=30|10=195|8=FIX.4.2|9=75|35=A|34=292|49=FIXCLIENT|52=20231228-01:43:04.000|56=FIXSERVER|98=0|108=30|10=192|8=FIX.4.2|9=75|35=A|34=293|49=FIXCLIENT|52=20231228-01:43:14.000|56=FIXSERVER|98=0|108=30|10=194|8=FIX.4.2|9=75|35=A|34=294|49=FIXCLIENT|52=20231228-01:43:24.000|56=FIXSERVER|98=0|108=30|10=196|8=FIX.4.2|9=75|35=A|34=295|49=FIXCLIENT|52=20231228-01:43:34.000|56=FIXSERVER|98=0|108=30|10=198|8=FIX.4.2|9=75|35=A|34=296|49=FIXCLIENT|52=20231228-01:43:44.000|56=FIXSERVER|98=0|108=30|10=200|8=FIX.4.2|9=75|35=A|34=297|49=FIXCLIENT|52=20231228-01:43:54.000|56=FIXSERVER|98=0|108=30|10=202|8=FIX.4.2|9=75|35=A|34=298|49=FIXCLIENT|52=20231228-01:44:04.000|56=FIXSERVER|98=0|108=30|10=199|8=FIX.4.2|9=75|35=A|34=299|49=FIXCLIENT|52=20231228-01:44:14.000|56=FIXSERVER|98=0|108=30|10=201|8=FIX.4.2|9=75|35=A|34=300|49=FIXCLIENT|52=20231228-01:44:34.000|56=FIXSERVER|98=0|108=30|10=186|8=FIX.4.2|9=98|35=6|34=301|49=FIXCLIENT|52=20231228-01:44:34.000|56=FIXSERVER|23=na|27=S|28=N|50=1234|54=1|55=NA|10=122|8=FIX.4.2|9=124|35=3|34=302|49=FIXCLIENT|52=20231228-01:44:34.000|56=FIXSERVER|45=246|58=Incorrect data format for value|371=60|372=D|373=6|10=204|8=FIX.4.2|9=124|35=3|34=303|49=FIXCLIENT|52=20231228-01:44:34.000|56=FIXSERVER|45=247|58=Incorrect data format for value|371=60|372=D|373=6|10=206|8=FIX.4.2|9=124|35=3|34=304|49=FIXCLIENT|52=20231228-01:44:34.000|56=FIXSERVER|45=248|58=Incorrect data format for value|371=60|372=D|373=6|10=208|8=FIX.4.2|9=124|35=3|34=305|49=FIXCLIENT|52=20231228-01:44:34.000|56=FIXSERVER|45=249|58=Incorrect data format for value|371=60|372=D|373=6|10=210|8=FIX.4.2|9=124|35=3|34=306|49=FIXCLIENT|52=20231228-01:44:34.000|56=FIXSERVER|45=250|58=Incorrect data format for value|371=60|372=D|373=6|10=203|8=FIX.4.2|9=124|35=3|34=307|49=FIXCLIENT|52=20231228-01:44:34.000|56=FIXSERVER|45=251|58=Incorrect data format for value|371=60|372=D|373=6|10=205|8=FIX.4.2|9=63|35=0|34=308|49=FIXCLIENT|52=20231228-01:45:04.000|56=FIXSERVER|10=147|8=FIX.4.2|9=63|35=0|34=309|49=FIXCLIENT|52=20231228-01:45:34.000|56=FIXSERVER|10=151|8=FIX.4.2|9=63|35=0|34=310|49=FIXCLIENT|52=20231228-01:46:04.000|56=FIXSERVER|10=141|8=FIX.4.2|9=63|35=0|34=311|49=FIXCLIENT|52=20231228-01:46:34.000|56=FIXSERVER|10=145|8=FIX.4.2|9=63|35=0|34=312|49=FIXCLIENT|52=20231228-01:47:04.000|56=FIXSERVER|10=144|8=FIX.4.2|9=63|35=0|34=313|49=FIXCLIENT|52=20231228-01:47:34.000|56=FIXSERVER|10=148|8=FIX.4.2|9=75|35=A|34=314|49=FIXCLIENT|52=20231228-01:47:54.000|56=FIXSERVER|98=0|108=30|10=196|8=FIX.4.2|9=98|35=6|34=315|49=FIXCLIENT|52=20231228-01:47:54.000|56=FIXSERVER|23=na|27=S|28=N|50=1234|54=1|55=NA|10=132|8=FIX.4.2|9=63|35=0|34=316|49=FIXCLIENT|52=20231228-01:48:24.000|56=FIXSERVER|10=151|8=FIX.4.2|9=72|35=1|34=317|49=FIXCLIENT|52=20231228-01:48:30.000|56=FIXSERVER|112=TEST|10=168|8=FIX.4.2|9=75|35=A|34=318|49=FIXCLIENT|52=20231228-01:49:06.000|56=FIXSERVER|98=0|108=30|10=199|8=FIX.4.2|9=75|35=A|34=319|49=FIXCLIENT|52=20231228-01:49:14.000|56=FIXSERVER|98=0|108=30|10=199|8=FIX.4.2|9=75|35=A|34=320|49=FIXCLIENT|52=20231228-01:49:24.000|56=FIXSERVER|98=0|108=30|10=192|8=FIX.4.2|9=75|35=A|34=321|49=FIXCLIENT|52=20231228-01:49:34.000|56=FIXSERVER|98=0|108=30|10=194|8=FIX.4.2|9=75|35=A|34=322|49=FIXCLIENT|52=20231228-01:49:44.000|56=FIXSERVER|98=0|108=30|10=196|8=FIX.4.2|9=75|35=A|34=323|49=FIXCLIENT|52=20231228-01:49:54.000|56=FIXSERVER|98=0|108=30|10=198|8=FIX.4.2|9=75|35=A|34=324|49=FIXCLIENT|52=20231228-01:50:04.000|56=FIXSERVER|98=0|108=30|10=186|8=FIX.4.2|9=75|35=A|34=325|49=FIXCLIENT|52=20231228-01:50:14.000|56=FIXSERVER|98=0|108=30|10=188|8=FIX.4.2|9=75|35=A|34=326|49=FIXCLIENT|52=20231228-01:50:24.000|56=FIXSERVER|98=0|108=30|10=190|8=FIX.4.2|9=75|35=A|34=327|49=FIXCLIENT|52=20231228-01:50:34.000|56=FIXSERVER|98=0|108=30|10=192|8=FIX.4.2|9=75|35=A|34=328|49=FIXCLIENT|52=20231228-01:50:44.000|56=FIXSERVER|98=0|108=30|10=194|8=FIX.4.2|9=75|35=A|34=329|49=FIXCLIENT|52=20231228-01:50:54.000|56=FIXSERVER|98=0|108=30|10=196|8=FIX.4.2|9=75|35=A|34=330|49=FIXCLIENT|52=20231228-01:51:04.000|56=FIXSERVER|98=0|108=30|10=184|8=FIX.4.2|9=75|35=A|34=331|49=FIXCLIENT|52=20231228-01:51:14.000|56=FIXSERVER|98=0|108=30|10=186|8=FIX.4.2|9=98|35=6|34=332|49=FIXCLIENT|52=20231228-01:51:14.000|56=FIXSERVER|23=na|27=S|28=N|50=1234|54=1|55=NA|10=122|8=FIX.4.2|9=63|35=0|34=333|49=FIXCLIENT|52=20231228-01:51:44.000|56=FIXSERVER|10=146|8=FIX.4.2|9=72|35=1|34=334|49=FIXCLIENT|52=20231228-01:51:50.000|56=FIXSERVER|112=TEST|10=163|8=FIX.4.2|9=75|35=A|34=335|49=FIXCLIENT|52=20231228-01:52:34.000|56=FIXSERVER|98=0|108=30|10=193|8=FIX.4.2|9=98|35=6|34=336|49=FIXCLIENT|52=20231228-01:52:34.000|56=FIXSERVER|23=na|27=S|28=N|50=1234|54=1|55=NA|10=129|8=FIX.4.2|9=63|35=0|34=337|49=FIXCLIENT|52=20231228-01:53:04.000|56=FIXSERVER|10=148|8=FIX.4.2|9=63|35=0|34=338|49=FIXCLIENT|52=20231228-01:53:34.000|56=FIXSERVER|10=152|8=FIX.4.2|9=63|35=0|34=339|49=FIXCLIENT|52=20231228-01:54:04.000|56=FIXSERVER|10=151|8=FIX.4.2|9=63|35=0|34=340|49=FIXCLIENT|52=20231228-01:54:34.000|56=FIXSERVER|10=146|8=FIX.4.2|9=63|35=0|34=341|49=FIXCLIENT|52=20231228-01:55:04.000|56=FIXSERVER|10=145|8=FIX.4.2|9=63|35=0|34=342|49=FIXCLIENT|52=20231228-01:55:34.000|56=FIXSERVER|10=149|8=FIX.4.2|9=75|35=A|34=343|49=FIXCLIENT|52=20231228-01:55:54.000|56=FIXSERVER|98=0|108=30|10=197|8=FIX.4.2|9=98|35=6|34=344|49=FIXCLIENT|52=20231228-01:55:54.000|56=FIXSERVER|23=na|27=S|28=N|50=1234|54=1|55=NA|10=133|8=FIX.4.2|9=63|35=0|34=345|49=FIXCLIENT|52=20231228-01:56:24.000|56=FIXSERVER|10=152|8=FIX.4.2|9=63|35=0|34=346|49=FIXCLIENT|52=20231228-01:56:54.000|56=FIXSERVER|10=156|8=FIX.4.2|9=63|35=0|34=347|49=FIXCLIENT|52=20231228-01:57:24.000|56=FIXSERVER|10=155|8=FIX.4.2|9=63|35=0|34=348|49=FIXCLIENT|52=20231228-01:57:54.000|56=FIXSERVER|10=159|8=FIX.4.2|9=63|35=0|34=349|49=FIXCLIENT|52=20231228-01:58:24.000|56=FIXSERVER|10=158|8=FIX.4.2|9=63|35=0|34=350|49=FIXCLIENT|52=20231228-01:58:54.000|56=FIXSERVER|10=153|8=FIX.4.2|9=63|35=0|34=351|49=FIXCLIENT|52=20231228-01:59:24.000|56=FIXSERVER|10=152|8=FIX.4.2|9=63|35=0|34=352|49=FIXCLIENT|52=20231228-01:59:54.000|56=FIXSERVER|10=156|8=FIX.4.2|9=63|35=0|34=353|49=FIXCLIENT|52=20231228-02:00:24.000|56=FIXSERVER|10=141|8=FIX.4.2|9=63|35=0|34=354|49=FIXCLIENT|52=20231228-02:00:54.000|56=FIXSERVER|10=145|