8=FIX.4.2|9=73|35=A|34=1|49=FIXSERVER|52=20231228-00:00:06.000|56=FIXCLIENT|98=0|108=30|10=076|8=FIX.4.2|9=70|35=2|34=2|49=FIXSERVER|52=20231228-00:00:06.000|56=FIXCLIENT|7=1|16=0|10=157|8=FIX.4.2|9=61|35=0|34=3|49=FIXSERVER|52=20231228-00:00:36.000|56=FIXCLIENT|10=036|8=FIX.4.2|9=61|35=0|34=4|49=FIXSERVER|52=20231228-00:01:06.000|56=FIXCLIENT|10=035|8=FIX.4.2|9=61|35=0|34=5|49=FIXSERVER|52=20231228-00:01:36.000|56=FIXCLIENT|10=039|8=FIX.4.2|9=61|35=0|34=6|49=FIXSERVER|52=20231228-00:02:06.000|56=FIXCLIENT|10=038|8=FIX.4.2|9=61|35=0|34=7|49=FIXSERVER|52=20231228-00:02:36.000|56=FIXCLIENT|10=042|8=FIX.4.2|9=61|35=0|34=8|49=FIXSERVER|52=20231228-00:03:06.000|56=FIXCLIENT|10=041|8=FIX.4.2|9=61|35=0|34=9|49=FIXSERVER|52=20231228-00:03:36.000|56=FIXCLIENT|10=045|8=FIX.4.2|9=62|35=0|34=10|49=FIXSERVER|52=20231228-00:04:06.000|56=FIXCLIENT|10=084|8=FIX.4.2|9=62|35=0|34=11|49=FIXSERVER|52=20231228-00:04:36.000|56=FIXCLIENT|10=088|8=FIX.4.2|9=62|35=0|34=12|49=FIXSERVER|52=20231228-00:05:06.000|56=FIXCLIENT|10=087|8=FIX.4.2|9=62|35=0|34=13|49=FIXSERVER|52=20231228-00:05:36.000|56=FIXCLIENT|10=091|8=FIX.4.2|9=62|35=0|34=14|49=FIXSERVER|52=20231228-00:06:06.000|56=FIXCLIENT|10=090|8=FIX.4.2|9=62|35=0|34=15|49=FIXSERVER|52=20231228-00:06:36.000|56=FIXCLIENT|10=094|8=FIX.4.2|9=62|35=0|34=16|49=FIXSERVER|52=20231228-00:07:06.000|56=FIXCLIENT|10=093|8=FIX.4.2|9=62|35=0|34=17|49=FIXSERVER|52=20231228-00:07:36.000|56=FIXCLIENT|10=097|8=FIX.4.2|9=62|35=0|34=18|49=FIXSERVER|52=20231228-00:08:06.000|56=FIXCLIENT|10=096|8=FIX.4.2|9=62|35=0|34=19|49=FIXSERVER|52=20231228-00:08:36.000|56=FIXCLIENT|10=100|8=FIX.4.2|9=62|35=0|34=20|49=FIXSERVER|52=20231228-00:09:06.000|56=FIXCLIENT|10=090|8=FIX.4.2|9=62|35=0|34=21|49=FIXSERVER|52=20231228-00:09:36.000|56=FIXCLIENT|10=094|8=FIX.4.2|9=62|35=0|34=22|49=FIXSERVER|52=20231228-00:10:06.000|56=FIXCLIENT|10=084|8=FIX.4.2|9=62|35=0|34=23|49=FIXSERVER|52=20231228-00:10:36.000|56=FIXCLIENT|10=088|8=FIX.4.2|9=62|35=0|34=24|49=FIXSERVER|52=20231228-00:11:06.000|56=FIXCLIENT|10=087|8=FIX.4.2|9=62|35=0|34=25|49=FIXSERVER|52=20231228-00:11:36.000|56=FIXCLIENT|10=091|8=FIX.4.2|9=62|35=0|34=26|49=FIXSERVER|52=20231228-00:12:06.000|56=FIXCLIENT|10=090|8=FIX.4.2|9=62|35=0|34=27|49=FIXSERVER|52=20231228-00:12:36.000|56=FIXCLIENT|10=094|8=FIX.4.2|9=62|35=0|34=28|49=FIXSERVER|52=20231228-00:13:06.000|56=FIXCLIENT|10=093|8=FIX.4.2|9=62|35=0|34=29|49=FIXSERVER|52=20231228-00:13:36.000|56=FIXCLIENT|10=097|8=FIX.4.2|9=62|35=0|34=30|49=FIXSERVER|52=20231228-00:14:06.000|56=FIXCLIENT|10=087|8=FIX.4.2|9=62|35=0|34=31|49=FIXSERVER|52=20231228-00:14:36.000|56=FIXCLIENT|10=091|8=FIX.4.2|9=62|35=0|34=32|49=FIXSERVER|52=20231228-00:15:06.000|56=FIXCLIENT|10=090|8=FIX.4.2|9=62|35=0|34=33|49=FIXSERVER|52=20231228-00:15:36.000|56=FIXCLIENT|10=094|8=FIX.4.2|9=62|35=0|34=34|49=FIXSERVER|52=20231228-00:16:06.000|56=FIXCLIENT|10=093|8=FIX.4.2|9=62|35=0|34=35|49=FIXSERVER|52=20231228-00:16:36.000|56=FIXCLIENT|10=097|8=FIX.4.2|9=62|35=0|34=36|49=FIXSERVER|52=20231228-00:17:06.000|56=FIXCLIENT|10=096|8=FIX.4.2|9=62|35=0|34=37|49=FIXSERVER|52=20231228-00:17:36.000|56=FIXCLIENT|10=100|8=FIX.4.2|9=62|35=0|34=38|49=FIXSERVER|52=20231228-00:18:06.000|56=FIXCLIENT|10=099|8=FIX.4.2|9=62|35=0|34=39|49=FIXSERVER|52=20231228-00:18:36.000|56=FIXCLIENT|10=103|8=FIX.4.2|9=62|35=0|34=40|49=FIXSERVER|52=20231228-00:19:06.000|56=FIXCLIENT|10=093|8=FIX.4.2|9=74|35=A|34=41|49=FIXSERVER|52=20231228-00:19:26.000|56=FIXCLIENT|98=0|108=30|10=141|8=FIX.4.2|9=62|35=0|34=42|49=FIXSERVER|52=20231228-00:19:56.000|56=FIXCLIENT|10=100|8=FIX.4.2|9=74|35=A|34=43|49=FIXSERVER|52=20231228-00:20:26.000|56=FIXCLIENT|98=0|108=30|10=135|8=FIX.4.2|9=62|35=0|34=44|49=FIXSERVER|52=20231228-00:20:56.000|56=FIXCLIENT|10=094|8=FIX.4.2|9=74|35=A|34=45|49=FIXSERVER|52=20231228-00:21:26.000|56=FIXCLIENT|98=0|108=30|10=138|8=FIX.4.2|9=62|35=0|34=46|49=FIXSERVER|52=20231228-00:21:56.000|56=FIXCLIENT|10=097|8=FIX.4.2|9=62|35=0|34=47|49=FIXSERVER|52=20231228-00:22:26.000|56=FIXCLIENT|10=096|8=FIX.4.2|9=62|35=0|34=48|49=FIXSERVER|52=20231228-00:22:56.000|56=FIXCLIENT|10=100|8=FIX.4.2|9=62|35=0|34=49|49=FIXSERVER|52=20231228-00:23:26.000|56=FIXCLIENT|10=099|8=FIX.4.2|9=62|35=0|34=50|49=FIXSERVER|52=20231228-00:23:56.000|56=FIXCLIENT|10=094|8=FIX.4.2|9=62|35=0|34=51|49=FIXSERVER|52=20231228-00:24:26.000|56=FIXCLIENT|10=093|8=FIX.4.2|9=62|35=0|34=52|49=FIXSERVER|52=20231228-00:24:56.000|56=FIXCLIENT|10=097|8=FIX.4.2|9=62|35=0|34=53|49=FIXSERVER|52=20231228-00:25:26.000|56=FIXCLIENT|10=096|8=FIX.4.2|9=62|35=0|34=54|49=FIXSERVER|52=20231228-00:25:56.000|56=FIXCLIENT|10=100|8=FIX.4.2|9=62|35=0|34=55|49=FIXSERVER|52=20231228-00:26:26.000|56=FIXCLIENT|10=099|8=FIX.4.2|9=62|35=0|34=56|49=FIXSERVER|52=20231228-00:26:56.000|56=FIXCLIENT|10=103|8=FIX.4.2|9=62|35=0|34=57|49=FIXSERVER|52=20231228-00:27:26.000|56=FIXCLIENT|10=102|8=FIX.4.2|9=62|35=0|34=58|49=FIXSERVER|52=20231228-00:27:56.000|56=FIXCLIENT|10=106|8=FIX.4.2|9=62|35=0|34=59|49=FIXSERVER|52=20231228-00:28:26.000|56=FIXCLIENT|10=105|8=FIX.4.2|9=62|35=0|34=60|49=FIXSERVER|52=20231228-00:28:56.000|56=FIXCLIENT|10=100|8=FIX.4.2|9=62|35=0|34=61|49=FIXSERVER|52=20231228-00:29:26.000|56=FIXCLIENT|10=099|8=FIX.4.2|9=62|35=0|34=62|49=FIXSERVER|52=20231228-00:29:56.000|56=FIXCLIENT|10=103|8=FIX.4.2|9=62|35=0|34=63|49=FIXSERVER|52=20231228-00:30:26.000|56=FIXCLIENT|10=093|8=FIX.4.2|9=62|35=0|34=64|49=FIXSERVER|52=20231228-00:30:56.000|56=FIXCLIENT|10=097|8=FIX.4.2|9=62|35=0|34=65|49=FIXSERVER|52=20231228-00:31:26.000|56=FIXCLIENT|10=096|8=FIX.4.2|9=62|35=0|34=66|49=FIXSERVER|52=20231228-00:31:56.000|56=FIXCLIENT|10=100|8=FIX.4.2|9=62|35=0|34=67|49=FIXSERVER|52=20231228-00:32:26.000|56=FIXCLIENT|10=099|8=FIX.4.2|9=62|35=0|34=68|49=FIXSERVER|52=20231228-00:32:56.000|56=FIXCLIENT|10=103|8=FIX.4.2|9=62|35=0|34=69|49=FIXSERVER|52=20231228-00:33:26.000|56=FIXCLIENT|10=102|8=FIX.4.2|9=62|35=0|34=70|49=FIXSERVER|52=20231228-00:33:56.000|56=FIXCLIENT|10=097|8=FIX.4.2|9=62|35=0|34=71|49=FIXSERVER|52=20231228-00:34:26.000|56=FIXCLIENT|10=096|8=FIX.4.2|9=62|35=0|34=72|49=FIXSERVER|52=20231228-00:34:56.000|56=FIXCLIENT|10=100|8=FIX.4.2|9=62|35=0|34=73|49=FIXSERVER|52=20231228-00:35:26.000|56=FIXCLIENT|10=099|8=FIX.4.2|9=62|35=0|34=74|49=FIXSERVER|52=20231228-00:35:56.000|56=FIXCLIENT|10=103|8=FIX.4.2|9=62|35=0|34=75|49=FIXSERVER|52=20231228-00:36:26.000|56=FIXCLIENT|10=102|8=FIX.4.2|9=62|35=0|34=76|49=FIXSERVER|52=20231228-00:36:56.000|56=FIXCLIENT|10=106|8=FIX.4.2|9=62|35=0|34=77|49=FIXSERVER|52=20231228-00:37:26.000|56=FIXCLIENT|10=105|8=FIX.4.2|9=62|35=0|34=78|49=FIXSERVER|52=20231228-00:37:56.000|56=FIXCLIENT|10=109|8=FIX.4.2|9=62|35=0|34=79|49=FIXSERVER|52=20231228-00:38:26.000|56=FIXCLIENT|10=108|8=FIX.4.2|9=62|35=0|34=80|49=FIXSERVER|52=20231228-00:38:56.000|56=FIXCLIENT|10=103|8=FIX.4.2|9=62|35=0|34=81|49=FIXSERVER|52=20231228-00:39:26.000|56=FIXCLIENT|10=102|8=FIX.4.2|9=62|35=0|34=82|49=FIXSERVER|52=20231228-00:39:56.000|56=FIXCLIENT|10=106|8=FIX.4.2|9=62|35=0|34=83|49=FIXSERVER|52=20231228-00:40:26.000|56=FIXCLIENT|10=096|8=FIX.4.2|9=62|35=0|34=84|49=FIXSERVER|52=20231228-00:40:56.000|56=FIXCLIENT|10=100|8=FIX.4.2|9=62|35=0|34=85|49=FIXSERVER|52=20231228-00:41:26.000|56=FIXCLIENT|10=099|8=FIX.4.2|9=62|35=0|34=86|49=FIXSERVER|52=20231228-00:41:56.000|56=FIXCLIENT|10=103|8=FIX.4.2|9=62|35=0|34=87|49=FIXSERVER|52=20231228-00:42:26.000|56=FIXCLIENT|10=102|8=FIX.4.2|9=62|35=0|34=88|49=FIXSERVER|52=20231228-00:42:56.000|56=FIXCLIENT|10=106|8=FIX.4.2|9=62|35=0|34=89|49=FIXSERVER|52=20231228-00:43:26.000|56=FIXCLIENT|10=105|8=FIX.4.2|9=62|35=0|34=90|49=FIXSERVER|52=20231228-00:43:56.000|56=FIXCLIENT|10=100|8=FIX.4.2|9=62|35=0|34=91|49=FIXSERVER|52=20231228-00:44:26.000|56=FIXCLIENT|10=099|8=FIX.4.2|9=62|35=0|34=92|49=FIXSERVER|52=20231228-00:44:56.000|56=FIXCLIENT|10=103|8=FIX.4.2|9=62|35=0|34=93|49=FIXSERVER|52=20231228-00:45:26.000|56=FIXCLIENT|10=102|8=FIX.4.2|9=62|35=0|34=94|49=FIXSERVER|52=20231228-00:45:56.000|56=FIXCLIENT|10=106|8=FIX.4.2|9=62|35=0|34=95|49=FIXSERVER|52=20231228-00:46:26.000|56=FIXCLIENT|10=105|8=FIX.4.2|9=74|35=A|34=96|49=FIXSERVER|52=20231228-00:47:06.000|56=FIXCLIENT|98=0|108=30|10=150|8=FIX.4.2|9=73|35=2|34=97|49=FIXSERVER|52=20231228-00:47:06.000|56=FIXCLIENT|7=100|16=0|10=073|8=FIX.4.2|9=62|35=0|34=98|49=FIXSERVER|52=20231228-00:47:36.000|56=FIXCLIENT|10=110|8=FIX.4.2|9=62|35=0|34=99|49=FIXSERVER|52=20231228-00:48:06.000|56=FIXCLIENT|10=109|8=FIX.4.2|9=63|35=0|34=100|49=FIXSERVER|52=20231228-00:48:36.000|56=FIXCLIENT|10=144|8=FIX.4.2|9=63|35=0|34=101|49=FIXSERVER|52=20231228-00:49:06.000|56=FIXCLIENT|10=143|8=FIX.4.2|9=63|35=0|34=102|49=FIXSERVER|52=20231228-00:49:36.000|56=FIXCLIENT|10=147|8=FIX.4.2|9=63|35=0|34=103|49=FIXSERVER|52=20231228-00:50:06.000|56=FIXCLIENT|10=137|8=FIX.4.2|9=75|35=A|34=104|49=FIXSERVER|52=20231228-00:50:46.000|56=FIXCLIENT|98=0|108=30|10=187|8=FIX.4.2|9=63|35=0|34=105|49=FIXSERVER|52=20231228-00:51:16.000|56=FIXCLIENT|10=141|8=FIX.4.2|9=75|35=A|34=106|49=FIXSERVER|52=20231228-00:51:46.000|56=FIXCLIENT|98=0|108=30|10=190|8=FIX.4.2|9=63|35=0|34=107|49=FIXSERVER|52=20231228-00:52:16.000|56=FIXCLIENT|10=144|8=FIX.4.2|9=75|35=A|34=108|49=FIXSERVER|52=20231228-00:52:26.000|56=FIXCLIENT|98=0|108=30|10=191|8=FIX.4.2|9=63|35=0|34=109|49=FIXSERVER|52=20231228-00:52:56.000|56=FIXCLIENT|10=150|8=FIX.4.2|9=75|35=A|34=110|49=FIXSERVER|52=20231228-00:53:26.000|56=FIXCLIENT|98=0|108=30|10=185|8=FIX.4.2|9=63|35=0|34=111|49=FIXSERVER|52=20231228-00:53:56.000|56=FIXCLIENT|10=144|8=FIX.4.2|9=63|35=0|34=112|49=FIXSERVER|52=20231228-00:54:26.000|56=FIXCLIENT|10=143|8=FIX.4.2|9=75|35=A|34=113|49=FIXSERVER|52=20231228-00:54:46.000|56=FIXCLIENT|98=0|108=30|10=191|8=FIX.4.2|9=63|35=0|34=114|49=FIXSERVER|52=20231228-00:55:16.000|56=FIXCLIENT|10=145|8=FIX.4.2|9=75|35=A|34=115|49=FIXSERVER|52=20231228-00:55:46.000|56=FIXCLIENT|98=0|108=30|10=194|8=FIX.4.2|9=75|35=A|34=116|49=FIXSERVER|52=20231228-00:57:46.000|56=FIXCLIENT|98=0|108=30|10=197|8=FIX.4.2|9=74|35=2|34=117|49=FIXSERVER|52=20231228-00:57:46.000|56=FIXCLIENT|7=126|16=0|10=128|8=FIX.4.2|9=75|35=A|34=118|49=FIXSERVER|52=20231228-00:58:26.000|56=FIXCLIENT|98=0|108=30|10=198|8=FIX.4.2|9=74|35=2|34=119|49=FIXSERVER|52=20231228-00:58:26.000|56=FIXCLIENT|7=126|16=0|10=129|8=FIX.4.2|9=75|35=A|34=120|49=FIXSERVER|52=20231228-01:00:06.000|56=FIXCLIENT|98=0|108=30|10=177|8=FIX.4.2|9=74|35=2|34=121|49=FIXSERVER|52=20231228-01:00:06.000|56=FIXCLIENT|7=126|16=0|10=108|8=FIX.4.2|9=75|35=A|34=122|49=FIXSERVER|52=20231228-01:01:26.000|56=FIXCLIENT|98=0|108=30|10=182|8=FIX.4.2|9=74|35=2|34=123|49=FIXSERVER|52=20231228-01:01:26.000|56=FIXCLIENT|7=126|16=0|10=113|8=FIX.4.2|9=75|35=A|34=124|49=FIXSERVER|52=20231228-01:02:06.000|56=FIXCLIENT|98=0|108=30|10=183|8=FIX.4.2|9=74|35=2|34=125|49=FIXSERVER|52=20231228-01:02:06.000|56=FIXCLIENT|7=126|16=0|10=114|8=FIX.4.2|9=90|35=D|34=126|49=FIXSERVER|52=20231228-01:02:06.000|56=FIXCLIENT|38=100|44=150|54=1|55=AAPL|10=180|8=FIX.4.2|9=91|35=D|34=127|49=FIXSERVER|52=20231228-01:02:06.000|56=FIXCLIENT|38=50|44=2500|54=2|55=GOOGL|10=022|8=FIX.4.2|9=90|35=D|34=128|49=FIXSERVER|52=20231228-01:02:06.000|56=FIXCLIENT|38=30|44=3100|54=1|55=AMZN|10=206|8=FIX.4.2|9=90|35=D|34=129|49=FIXSERVER|52=20231228-01:02:06.000|56=FIXCLIENT|38=100|44=150|54=1|55=AAPL|10=183|8=FIX.4.2|9=91|35=D|34=130|49=FIXSERVER|52=20231228-01:02:06.000|56=FIXCLIENT|38=50|44=2500|54=2|55=GOOGL|10=016|8=FIX.4.2|9=90|35=D|34=131|49=FIXSERVER|52=20231228-01:02:06.000|56=FIXCLIENT|38=30|44=3100|54=1|55=AMZN|10=200|8=FIX.4.2|9=90|35=D|34=132|49=FIXSERVER|52=20231228-01:02:06.000|56=FIXCLIENT|38=100|44=150|54=1|55=AAPL|10=177|8=FIX.4.2|9=91|35=D|34=133|49=FIXSERVER|52=20231228-01:02:06.000|56=FIXCLIENT|38=50|44=2500|54=2|55=GOOGL|10=019|8=FIX.4.2|9=90|35=D|34=134|49=FIXSERVER|52=20231228-01:02:06.000|56=FIXCLIENT|38=30|44=3100|54=1|55=AMZN|10=203|8=FIX.4.2|9=90|35=D|34=135|49=FIXSERVER|52=20231228-01:02:06.000|56=FIXCLIENT|38=100|44=150|54=1|55=AAPL|10=180|8=FIX.4.2|9=91|35=D|34=136|49=FIXSERVER|52=20231228-01:02:06.000|56=FIXCLIENT|38=50|44=2500|54=2|55=GOOGL|10=022|8=FIX.4.2|9=90|35=D|34=137|49=FIXSERVER|52=20231228-01:02:06.000|56=FIXCLIENT|38=30|44=3100|54=1|55=AMZN|10=206|8=FIX.4.2|9=90|35=D|34=138|49=FIXSERVER|52=20231228-01:02:06.000|56=FIXCLIENT|38=100|44=150|54=1|55=AAPL|10=183|8=FIX.4.2|9=91|35=D|34=139|49=FIXSERVER|52=20231228-01:02:06.000|56=FIXCLIENT|38=50|44=2500|54=2|55=GOOGL|10=025|8=FIX.4.2|9=90|35=D|34=140|49=FIXSERVER|52=20231228-01:02:06.000|56=FIXCLIENT|38=30|44=3100|54=1|55=AMZN|10=200|8=FIX.4.2|9=90|35=D|34=141|49=FIXSERVER|52=20231228-01:02:06.000|56=FIXCLIENT|38=100|44=150|54=1|55=AAPL|10=177|8=FIX.4.2|9=91|35=D|34=142|49=FIXSERVER|52=20231228-01:02:06.000|56=FIXCLIENT|38=50|44=2500|54=2|55=GOOGL|10=019|8=FIX.4.2|9=90|35=D|34=143|49=FIXSERVER|52=20231228-01:02:06.000|56=FIXCLIENT|38=30|44=3100|54=1|55=AMZN|10=203|8=FIX.4.2|9=63|35=0|34=144|49=FIXSERVER|52=20231228-01:02:36.000|56=FIXCLIENT|10=143|8=FIX.4.2|9=63|35=0|34=145|49=FIXSERVER|52=20231228-01:03:06.000|56=FIXCLIENT|10=142|8=FIX.4.2|9=63|35=0|34=146|49=FIXSERVER|52=20231228-01:03:36.000|56=FIXCLIENT|10=146|8=FIX.4.2|9=63|35=0|34=147|49=FIXSERVER|52=20231228-01:04:06.000|56=FIXCLIENT|10=145|8=FIX.4.2|9=63|35=0|34=148|49=FIXSERVER|52=20231228-01:04:36.000|56=FIXCLIENT|10=149|8=FIX.4.2|9=63|35=0|34=149|49=FIXSERVER|52=20231228-01:05:06.000|56=FIXCLIENT|10=148|8=FIX.4.2|9=63|35=0|34=150|49=FIXSERVER|52=20231228-01:05:36.000|56=FIXCLIENT|10=143|8=FIX.4.2|9=63|35=0|34=151|49=FIXSERVER|52=20231228-01:06:06.000|56=FIXCLIENT|10=142|8=FIX.4.2|9=63|35=0|34=152|49=FIXSERVER|52=20231228-01:06:36.000|56=FIXCLIENT|10=146|8=FIX.4.2|9=63|35=0|34=153|49=FIXSERVER|52=20231228-01:07:06.000|56=FIXCLIENT|10=145|8=FIX.4.2|9=63|35=0|34=154|49=FIXSERVER|52=20231228-01:07:36.000|56=FIXCLIENT|10=149|8=FIX.4.2|9=63|35=0|34=155|49=FIXSERVER|52=20231228-01:08:06.000|56=FIXCLIENT|10=148|8=FIX.4.2|9=63|35=0|34=156|49=FIXSERVER|52=20231228-01:08:36.000|56=FIXCLIENT|10=152|8=FIX.4.2|9=63|35=0|34=157|49=FIXSERVER|52=20231228-01:09:06.000|56=FIXCLIENT|10=151|8=FIX.4.2|9=63|35=0|34=158|49=FIXSERVER|52=20231228-01:09:36.000|56=FIXCLIENT|10=155|8=FIX.4.2|9=63|35=0|34=159|49=FIXSERVER|52=20231228-01:10:06.000|56=FIXCLIENT|10=145|8=FIX.4.2|9=63|35=0|34=160|49=FIXSERVER|52=20231228-01:10:36.000|56=FIXCLIENT|10=140|8=FIX.4.2|9=63|35=0|34=161|49=FIXSERVER|52=20231228-01:11:06.000|56=FIXCLIENT|10=139|8=FIX.4.2|9=63|35=0|34=162|49=FIXSERVER|52=20231228-01:11:36.000|56=FIXCLIENT|10=143|8=FIX.4.2|9=63|35=0|34=163|49=FIXSERVER|52=20231228-01:12:06.000|56=FIXCLIENT|10=142|8=FIX.4.2|9=63|35=0|34=164|49=FIXSERVER|52=20231228-01:12:36.000|56=FIXCLIENT|10=146|8=FIX.4.2|9=75|35=A|34=165|49=FIXSERVER|52=20231228-01:15:26.000|56=FIXCLIENT|98=0|108=30|10=194|8=FIX.4.2|9=74|35=2|34=166|49=FIXSERVER|52=20231228-01:15:26.000|56=FIXCLIENT|7=192|16=0|10=128|8=FIX.4.2|9=75|35=A|34=167|49=FIXSERVER|52=20231228-01:16:26.000|56=FIXCLIENT|98=0|108=30|10=197|8=FIX.4.2|9=74|35=2|34=168|49=FIXSERVER|52=20231228-01:16:26.000|56=FIXCLIENT|7=201|16=0|10=122|8=FIX.4.2|9=114|35=D|11=20231227171607000001|34=169|49=FIXSERVER|52=20231228-01:16:26.000|56=FIXCLIENT|38=100|44=150|54=1|55=AAPL|10=121|8=FIX.4.2|9=115|35=D|11=20231227171607000002|34=170|49=FIXSERVER|52=20231228-01:16:26.000|56=FIXCLIENT|38=50|44=2500|54=2|55=GOOGL|10=211|8=FIX.4.2|9=114|35=D|11=20231227171607000003|34=171|49=FIXSERVER|52=20231228-01:16:26.000|56=FIXCLIENT|38=30|44=3100|54=1|55=AMZN|10=140|8=FIX.4.2|9=114|35=D|11=20231227171607000004|34=172|49=FIXSERVER|52=20231228-01:16:26.000|56=FIXCLIENT|38=100|44=150|54=1|55=AAPL|10=118|8=FIX.4.2|9=115|35=D|11=20231227171607000005|34=173|49=FIXSERVER|52=20231228-01:16:26.000|56=FIXCLIENT|38=50|44=2500|54=2|55=GOOGL|10=217|8=FIX.4.2|9=114|35=D|11=20231227171607000006|34=174|49=FIXSERVER|52=20231228-01:16:26.000|56=FIXCLIENT|38=30|44=3100|54=1|55=AMZN|10=146|8=FIX.4.2|9=63|35=0|34=175|49=FIXSERVER|52=20231228-01:16:56.000|56=FIXCLIENT|10=154|8=FIX.4.2|9=63|35=0|34=176|49=FIXSERVER|52=20231228-01:17:26.000|56=FIXCLIENT|10=153|8=FIX.4.2|9=63|35=0|34=177|49=FIXSERVER|52=20231228-01:17:56.000|56=FIXCLIENT|10=157|8=FIX.4.2|9=63|35=0|34=178|49=FIXSERVER|52=20231228-01:18:26.000|56=FIXCLIENT|10=156|8=FIX.4.2|9=75|35=A|34=179|49=FIXSERVER|52=20231228-01:18:46.000|56=FIXCLIENT|98=0|108=30|10=204|8=FIX.4.2|9=114|35=D|11=20231227171837000001|34=180|49=FIXSERVER|52=20231228-01:18:46.000|56=FIXCLIENT|38=100|44=150|54=1|55=AAPL|10=123|8=FIX.4.2|9=115|35=D|11=20231227171837000002|34=181|49=FIXSERVER|52=20231228-01:18:46.000|56=FIXCLIENT|38=50|44=2500|54=2|55=GOOGL|10=222|8=FIX.4.2|9=114|35=D|11=20231227171837000003|34=182|49=FIXSERVER|52=20231228-01:18:46.000|56=FIXCLIENT|38=30|44=3100|54=1|55=AMZN|10=151|8=FIX.4.2|9=75|35=A|34=183|49=FIXSERVER|52=20231228-01:19:54.000|56=FIXCLIENT|98=0|108=30|10=199|8=FIX.4.2|9=114|35=D|11=20231227171915000001|34=184|49=FIXSERVER|52=20231228-01:19:54.000|56=FIXCLIENT|38=100|44=150|54=1|55=AAPL|10=124|8=FIX.4.2|9=115|35=D|11=20231227171915000002|34=185|49=FIXSERVER|52=20231228-01:19:54.000|56=FIXCLIENT|38=50|44=2500|54=2|55=GOOGL|10=223|8=FIX.4.2|9=114|35=D|11=20231227171915000003|34=186|49=FIXSERVER|52=20231228-01:19:54.000|56=FIXCLIENT|38=30|44=3100|54=1|55=AMZN|10=152|8=FIX.4.2|9=63|35=0|34=187|49=FIXSERVER|52=20231228-01:20:24.000|56=FIXCLIENT|10=147|8=FIX.4.2|9=63|35=0|34=188|49=FIXSERVER|52=20231228-01:20:54.000|56=FIXCLIENT|10=151|8=FIX.4.2|9=63|35=0|34=189|49=FIXSERVER|52=20231228-01:21:24.000|56=FIXCLIENT|10=150|8=FIX.4.2|9=63|35=0|34=190|49=FIXSERVER|52=20231228-01:21:54.000|56=FIXCLIENT|10=145|8=FIX.4.2|9=63|35=0|34=191|49=FIXSERVER|52=20231228-01:22:24.000|56=FIXCLIENT|10=144|8=FIX.4.2|9=63|35=0|34=192|49=FIXSERVER|52=20231228-01:22:54.000|56=FIXCLIENT|10=148|8=FIX.4.2|9=63|35=0|34=193|49=FIXSERVER|52=20231228-01:23:24.000|56=FIXCLIENT|10=147|8=FIX.4.2|9=63|35=0|34=194|49=FIXSERVER|52=20231228-01:23:54.000|56=FIXCLIENT|10=151|8=FIX.4.2|9=63|35=0|34=195|49=FIXSERVER|52=20231228-01:24:24.000|56=FIXCLIENT|10=150|8=FIX.4.2|9=63|35=0|34=196|49=FIXSERVER|52=20231228-01:24:54.000|56=FIXCLIENT|10=154|8=FIX.4.2|9=63|35=0|34=197|49=FIXSERVER|52=20231228-01:25:24.000|56=FIXCLIENT|10=153|8=FIX.4.2|9=63|35=0|34=198|49=FIXSERVER|52=20231228-01:25:54.000|56=FIXCLIENT|10=157|8=FIX.4.2|9=63|35=0|34=199|49=FIXSERVER|52=20231228-01:26:24.000|56=FIXCLIENT|10=156|8=FIX.4.2|9=63|35=0|34=200|49=FIXSERVER|52=20231228-01:26:54.000|56=FIXCLIENT|10=142|8=FIX.4.2|9=63|35=0|34=201|49=FIXSERVER|52=20231228-01:27:24.000|56=FIXCLIENT|10=141|8=FIX.4.2|9=63|35=0|34=202|49=FIXSERVER|52=20231228-01:27:54.000|56=FIXCLIENT|10=145|8=FIX.4.2|9=63|35=0|34=203|49=FIXSERVER|52=20231228-01:28:24.000|56=FIXCLIENT|10=144|8=FIX.4.2|9=63|35=0|34=204|49=FIXSERVER|52=20231228-01:28:54.000|56=FIXCLIENT|10=148|8=FIX.4.2|9=63|35=0|34=205|49=FIXSERVER|52=20231228-01:29:24.000|56=FIXCLIENT|10=147|8=FIX.4.2|9=63|35=0|34=206|49=FIXSERVER|52=20231228-01:29:54.000|56=FIXCLIENT|10=151|8=FIX.4.2|9=63|35=0|34=207|49=FIXSERVER|52=20231228-01:30:24.000|56=FIXCLIENT|10=141|8=FIX.4.2|9=75|35=A|34=208|49=FIXSERVER|52=20231228-01:30:34.000|56=FIXCLIENT|98=0|108=30|10=188|8=FIX.4.2|9=114|35=D|11=20231227171915000004|34=209|49=FIXSERVER|52=20231228-01:30:34.000|56=FIXCLIENT|38=100|44=150|54=1|55=AAPL|10=116|8=FIX.4.2|9=115|35=D|11=20231227171915000005|34=210|49=FIXSERVER|52=20231228-01:30:34.000|56=FIXCLIENT|38=50|44=2500|54=2|55=GOOGL|10=206|8=FIX.4.2|9=114|35=D|11=20231227171915000006|34=211|49=FIXSERVER|52=20231228-01:30:34.000|56=FIXCLIENT|38=30|44=3100|54=1|55=AMZN|10=135|8=FIX.4.2|9=63|35=0|34=212|49=FIXSERVER|52=20231228-01:31:04.000|56=FIXCLIENT|10=136|8=FIX.4.2|9=63|35=0|34=213|49=FIXSERVER|52=20231228-01:31:34.000|56=FIXCLIENT|10=140|8=FIX.4.2|9=75|35=A|34=214|49=FIXSERVER|52=20231228-01:31:54.000|56=FIXCLIENT|98=0|108=30|10=188|8=FIX.4.2|9=105|35=D|34=215|49=FIXSERVER|52=20231228-01:31:54.000|56=FIXCLIENT|27=3|38=100|44=150.0|50=1234|54=1|55=AAPL|10=138|8=FIX.4.2|9=106|35=D|34=216|49=FIXSERVER|52=20231228-01:31:54.000|56=FIXCLIENT|27=3|38=50|44=2500.0|50=1234|54=2|55=GOOGL|10=236|8=FIX.4.2|9=105|35=D|34=217|49=FIXSERVER|52=20231228-01:31:54.000|56=FIXCLIENT|27=3|38=30|44=3100.0|50=1234|54=1|55=AMZN|10=164|8=FIX.4.2|9=63|35=0|34=218|49=FIXSERVER|52=20231228-01:32:24.000|56=FIXCLIENT|10=145|8=FIX.4.2|9=63|35=0|34=219|49=FIXSERVER|52=20231228-01:32:54.000|56=FIXCLIENT|10=149|8=FIX.4.2|9=75|35=A|34=220|49=FIXSERVER|52=20231228-01:33:14.000|56=FIXCLIENT|98=0|108=30|10=183|8=FIX.4.2|9=129|35=D|34=221|49=FIXSERVER|52=20231228-01:33:14.000|56=FIXCLIENT|11=20231227173301000001|27=3|38=100|44=150.0|50=1234|54=1|55=AAPL|10=014|8=FIX.4.2|9=130|35=D|34=222|49=FIXSERVER|52=20231228-01:33:14.000|56=FIXCLIENT|11=20231227173301000002|27=3|38=50|44=2500.0|50=1234|54=2|55=GOOGL|10=104|8=FIX.4.2|9=129|35=D|34=223|49=FIXSERVER|52=20231228-01:33:14.000|56=FIXCLIENT|11=20231227173301000003|27=3|38=30|44=3100.0|50=1234|54=1|55=AMZN|10=042|8=FIX.4.2|9=63|35=0|34=224|49=FIXSERVER|52=20231228-01:33:44.000|56=FIXCLIENT|10=145|8=FIX.4.2|9=63|35=0|34=225|49=FIXSERVER|52=20231228-01:34:14.000|56=FIXCLIENT|10=144|8=FIX.4.2|9=75|35=A|34=226|49=FIXSERVER|52=20231228-01:34:34.000|56=FIXCLIENT|98=0|108=30|10=192|8=FIX.4.2|9=134|35=D|34=227|49=FIXSERVER|52=20231228-01:34:34.000|56=FIXCLIENT|11=20231227173431000001|21=3|38=100|40=2|44=150.0|50=1234|54=1|55=AAPL|10=229|8=FIX.4.2|9=135|35=D|34=228|49=FIXSERVER|52=20231228-01:34:34.000|56=FIXCLIENT|11=20231227173431000002|21=3|38=50|40=2|44=2500.0|50=1234|54=2|55=GOOGL|10=072|8=FIX.4.2|9=134|35=D|34=229|49=FIXSERVER|52=20231228-01:34:34.000|56=FIXCLIENT|11=20231227173431000003|21=3|38=30|40=2|44=3100.0|50=1234|54=1|55=AMZN|10=001|8=FIX.4.2|9=63|35=0|34=230|49=FIXSERVER|52=20231228-01:35:04.000|56=FIXCLIENT|10=140|8=FIX.4.2|9=63|35=0|34=231|49=FIXSERVER|52=20231228-01:35:34.000|56=FIXCLIENT|10=144|8=FIX.4.2|9=63|35=0|34=232|49=FIXSERVER|52=20231228-01:36:04.000|56=FIXCLIENT|10=143|8=FIX.4.2|9=63|35=0|34=233|49=FIXSERVER|52=20231228-01:36:34.000|56=FIXCLIENT|10=147|8=FIX.4.2|9=63|35=0|34=234|49=FIXSERVER|52=20231228-01:37:04.000|56=FIXCLIENT|10=146|8=FIX.4.2|9=63|35=0|34=235|49=FIXSERVER|52=20231228-01:37:34.000|56=FIXCLIENT|10=150|8=FIX.4.2|9=63|35=0|34=236|49=FIXSERVER|52=20231228-01:38:04.000|56=FIXCLIENT|10=149|8=FIX.4.2|9=63|35=0|34=237|49=FIXSERVER|52=20231228-01:38:34.000|56=FIXCLIENT|10=153|8=FIX.4.2|9=63|35=0|34=238|49=FIXSERVER|52=20231228-01:39:04.000|56=FIXCLIENT|10=152|8=FIX.4.2|9=63|35=0|34=239|49=FIXSERVER|52=20231228-01:39:34.000|56=FIXCLIENT|10=156|8=FIX.4.2|9=63|35=0|34=240|49=FIXSERVER|52=20231228-01:40:04.000|56=FIXCLIENT|10=137|8=FIX.4.2|9=63|35=0|34=241|49=FIXSERVER|52=20231228-01:40:34.000|56=FIXCLIENT|10=141|8=FIX.4.2|9=63|35=0|34=242|49=FIXSERVER|52=20231228-01:41:04.000|56=FIXCLIENT|10=140|8=FIX.4.2|9=75|35=A|34=243|49=FIXSERVER|52=20231228-01:41:34.000|56=FIXCLIENT|98=0|108=30|10=189|8=FIX.4.2|9=75|35=A|34=244|49=FIXSERVER|52=20231228-01:44:34.000|56=FIXCLIENT|98=0|108=30|10=193|8=FIX.4.2|9=74|35=2|34=245|49=FIXSERVER|52=20231228-01:44:34.000|56=FIXCLIENT|7=287|16=0|10=132|8=FIX.4.2|9=164|35=D|34=246|49=FIXSERVER|52=20231228-01:44:34.000|56=FIXCLIENT|11=20231227174421000001|21=3|38=100|40=2|44=150.0|50=1234|54=1|55=AAPL|60=2023-12-27 17:44:34.424922|10=171|8=FIX.4.2|9=165|35=D|34=247|49=FIXSERVER|52=20231228-01:44:34.000|56=FIXCLIENT|11=20231227174421000002|21=3|38=50|40=2|44=2500.0|50=1234|54=2|55=GOOGL|60=2023-12-27 17:44:34.426020|10=005|8=FIX.4.2|9=164|35=D|34=248|49=FIXSERVER|52=20231228-01:44:34.000|56=FIXCLIENT|11=20231227174421000003|21=3|38=30|40=2|44=3100.0|50=1234|54=1|55=AMZN|60=2023-12-27 17:44:34.426702|10=197|8=FIX.4.2|9=164|35=D|34=249|49=FIXSERVER|52=20231228-01:44:34.000|56=FIXCLIENT|11=20231227174421000004|21=3|38=100|40=2|44=150.0|50=1234|54=1|55=AAPL|60=2023-12-27 17:44:34.429576|10=187|8=FIX.4.2|9=165|35=D|34=250|49=FIXSERVER|52=20231228-01:44:34.000|56=FIXCLIENT|11=20231227174421000005|21=3|38=50|40=2|44=2500.0|50=1234|54=2|55=GOOGL|60=2023-12-27 17:44:34.430227|10=006|8=FIX.4.2|9=164|35=D|34=251|49=FIXSERVER|52=20231228-01:44:34.000|56=FIXCLIENT|11=20231227174421000006|21=3|38=30|40=2|44=3100.0|50=1234|54=1|55=AMZN|60=2023-12-27 17:44:34.430829|10=199|8=FIX.4.2|9=63|35=0|34=252|49=FIXSERVER|52=20231228-01:45:04.000|56=FIXCLIENT|10=145|8=FIX.4.2|9=63|35=0|34=253|49=FIXSERVER|52=20231228-01:45:34.000|56=FIXCLIENT|10=149|8=FIX.4.2|9=63|35=0|34=254|49=FIXSERVER|52=20231228-01:46:04.000|56=FIXCLIENT|10=148|8=FIX.4.2|9=63|35=0|34=255|49=FIXSERVER|52=20231228-01:46:34.000|56=FIXCLIENT|10=152|8=FIX.4.2|9=63|35=0|34=256|49=FIXSERVER|52=20231228-01:47:04.000|56=FIXCLIENT|10=151|8=FIX.4.2|9=63|35=0|34=257|49=FIXSERVER|52=20231228-01:47:34.000|56=FIXCLIENT|10=155|8=FIX.4.2|9=75|35=A|34=258|49=FIXSERVER|52=20231228-01:47:54.000|56=FIXCLIENT|98=0|108=30|10=203|8=FIX.4.2|9=75|35=A|34=259|49=FIXSERVER|52=20231228-01:51:14.000|56=FIXCLIENT|98=0|108=30|10=195|8=FIX.4.2|9=74|35=2|34=260|49=FIXSERVER|52=20231228-01:51:14.000|56=FIXCLIENT|7=315|16=0|10=117|8=FIX.4.2|9=75|35=A|34=261|49=FIXSERVER|52=20231228-01:52:34.000|56=FIXCLIENT|98=0|108=30|10=191|8=FIX.4.2|9=74|35=2|34=262|49=FIXSERVER|52=20231228-01:52:34.000|56=FIXCLIENT|7=315|16=0|10=122|8=FIX.4.2|9=162|35=D|34=263|49=FIXSERVER|52=20231228-01:52:34.000|56=FIXCLIENT|11=20231227175219000001|21=3|38=100|40=2|44=150.0|50=1234|54=1|55=AAPL|60=20231228-01:52:34.083503|10=085|8=FIX.4.2|9=163|35=D|34=264|49=FIXSERVER|52=20231228-01:52:34.000|56=FIXCLIENT|11=20231227175219000002|21=3|38=50|40=2|44=2500.0|50=1234|54=2|55=GOOGL|60=20231228-01:52:34.084534|10=189|8=FIX.4.2|9=162|35=D|34=265|49=FIXSERVER|52=20231228-01:52:34.000|56=FIXCLIENT|11=20231227175219000003|21=3|38=30|40=2|44=3100.0|50=1234|54=1|55=AMZN|60=20231228-01:52:34.085183|10=119|8=FIX.4.2|9=162|35=D|34=266|49=FIXSERVER|52=20231228-01:52:34.000|56=FIXCLIENT|11=20231227175219000004|21=3|38=100|40=2|44=150.0|50=1234|54=1|55=AAPL|60=20231228-01:52:34.086597|10=107|8=FIX.4.2|9=163|35=D|34=267|49=FIXSERVER|52=20231228-01:52:34.000|56=FIXCLIENT|11=20231227175219000005|21=3|38=50|40=2|44=2500.0|50=1234|54=2|55=GOOGL|60=20231228-01:52:34.087178|10=202|8=FIX.4.2|9=162|35=D|34=268|49=FIXSERVER|52=20231228-01:52:34.000|56=FIXCLIENT|11=20231227175219000006|21=3|38=30|40=2|44=3100.0|50=1234|54=1|55=AMZN|60=20231228-01:52:34.087735|10=130|8=FIX.4.2|9=162|35=D|34=269|49=FIXSERVER|52=20231228-01:52:34.000|56=FIXCLIENT|11=20231227175219000007|21=3|38=100|40=2|44=150.0|50=1234|54=1|55=AAPL|60=20231228-01:52:34.089370|10=105|8=FIX.4.2|9=163|35=D|34=270|49=FIXSERVER|52=20231228-01:52:34.000|56=FIXCLIENT|11=20231227175219000008|21=3|38=50|40=2|44=2500.0|50=1234|54=2|55=GOOGL|60=20231228-01:52:34.090074|10=188|8=FIX.4.2|9=162|35=D|34=271|49=FIXSERVER|52=20231228-01:52:34.000|56=FIXCLIENT|11=20231227175219000009|21=3|38=30|40=2|44=3100.0|50=1234|54=1|55=AMZN|60=20231228-01:52:34.090599|10=129|8=FIX.4.2|9=63|35=0|34=272|49=FIXSERVER|52=20231228-01:53:04.000|56=FIXCLIENT|10=146|8=FIX.4.2|9=63|35=0|34=273|49=FIXSERVER|52=20231228-01:53:34.000|56=FIXCLIENT|10=150|8=FIX.4.2|9=63|35=0|34=274|49=FIXSERVER|52=20231228-01:54:04.000|56=FIXCLIENT|10=149|8=FIX.4.2|9=63|35=0|34=275|49=FIXSERVER|52=20231228-01:54:34.000|56=FIXCLIENT|10=153|8=FIX.4.2|9=63|35=0|34=276|49=FIXSERVER|52=20231228-01:55:04.000|56=FIXCLIENT|10=152|8=FIX.4.2|9=63|35=0|34=277|49=FIXSERVER|52=20231228-01:55:34.000|56=FIXCLIENT|10=156|8=FIX.4.2|9=75|35=A|34=278|49=FIXSERVER|52=20231228-01:55:54.000|56=FIXCLIENT|98=0|108=30|10=204|8=FIX.4.2|9=162|35=D|34=279|49=FIXSERVER|52=20231228-01:55:54.000|56=FIXCLIENT|11=20231227175546000001|21=3|38=100|40=2|44=150.0|50=1234|54=1|55=AAPL|60=20231228-01:55:54.407671|10=111|8=FIX.4.2|9=163|35=D|34=280|49=FIXSERVER|52=20231228-01:55:54.000|56=FIXCLIENT|11=20231227175546000002|21=3|38=50|40=2|44=2500.0|50=1234|54=2|55=GOOGL|60=20231228-01:55:54.408307|10=198|8=FIX.4.2|9=162|35=D|34=281|49=FIXSERVER|52=20231228-01:55:54.000|56=FIXCLIENT|11=20231227175546000003|21=3|38=30|40=2|44=3100.0|50=1234|54=1|55=AMZN|60=20231228-01:55:54.408640|10=127|8=FIX.4.2|9=63|35=0|34=282|49=FIXSERVER|52=20231228-01:56:24.000|56=FIXCLIENT|10=152|8=FIX.4.2|9=63|35=0|34=283|49=FIXSERVER|52=20231228-01:56:54.000|56=FIXCLIENT|10=156|8=FIX.4.2|9=63|35=0|34=284|49=FIXSERVER|52=20231228-01:57:24.000|56=FIXCLIENT|10=155|8=FIX.4.2|9=63|35=0|34=285|49=FIXSERVER|52=20231228-01:57:54.000|56=FIXCLIENT|10=159|8=FIX.4.2|9=63|35=0|34=286|49=FIXSERVER|52=20231228-01:58:24.000|56=FIXCLIENT|10=158|8=FIX.4.2|9=63|35=0|34=287|49=FIXSERVER|52=20231228-01:58:54.000|56=FIXCLIENT|10=162|8=FIX.4.2|9=63|35=0|34=288|49=FIXSERVER|52=20231228-01:59:24.000|56=FIXCLIENT|10=161|8=FIX.4.2|9=63|35=0|34=289|49=FIXSERVER|52=20231228-01:59:54.000|56=FIXCLIENT|10=165|8=FIX.4.2|9=63|35=0|34=290|49=FIXSERVER|52=20231228-02:00:24.000|56=FIXCLIENT|10=141|8=FIX.4.2|9=63|35=0|34=291|49=FIXSERVER|52=20231228-02:00:54.000|56=FIXCLIENT|10=145|